:100000000C94CC010C94E9010C94E9010C94E901E5
:100010000C94E9010C94E9010C94E9010C94E901B8
:100020000C94E9010C94E9010C940E1C0C94E21C54
:100030000C942E170C94E9010C94E9010C94E9013D
:100040000C94E9010C94E9010C94E9010C94E90188
:100050000C94E9010C94B5170C94E9010C94E90196
:100060000C94E9010C94E9010C94E9010C94E90168
:100070000C94E9010C94E9010C94E9010C94E90158
:100080000C94E9010C94E9010C94E9010C94E90148
:100090000C94E9010C94E9010C94E9010C94E90138
:1000A0000C94E9010C94E9010C94E90129001E006B
:1000B0001F0020002100220023002400250026002C
:1000C00027002D002E003100000035002B00140009
:1000D0001A000800150017001C0018000C00120080
:1000E00013002F0030002A00E00004001600070073
:1000F00009000A000B000D000E000F003300340051
:1001000000002800E10000001D001B00060019008F
:10011000050011001000360037003800E5000041EE
:10012000E200E3002C000042E60001003A003B0040
:100130003C003D003E003F004000410042004300C3
:1001400044004500490000000100390001000100A1
:1001500001000100010001000100460047004800C5
:10016000520001004C000100A900AA00A800B00044
:100170000100550054004A004B0050004F000000A1
:100180000100010000000100010001000100010068
:10019000570056004D004E005100010000000100C4
:1001A000010001000000010000000000000000004C
:1001B000000000000000000000000000000000003F
:1001C000000000000000000000000000000000002F
:1001D0000000000000000000A90000000000000076
:1001E000000000000000000000000000000000000F
:1001F0000000AC00AE00AB000000000000000000FA
:1002000000000000000000000000000000000000EE
:100210000000AA0000000000000000000000000034
:1002200000000000B6000E0375006E006900780043
:100230003600300000001403460052003400420033
:100240006F00610072006400730000000403090481
:1002500009023B00020100A0FA09040000010301A9
:100260000100092111010001224400070581030852
:10027000000109040100010300000009211101002F
:100280000122B600070582032000011201000200CE
:1002900000000852465855010001020001050109FD
:1002A00002A10185020901A100050919012908150A
:1002B00000250195087501810205010930093115F4
:1002C00081257F95027508810609381581257F955E
:1002D0000175088106050C0A38021581257F9501F4
:1002E00075088106C0C005010980A10185031901B7
:1002F0002AB700150126B700950175108100C005C9
:100300000C0901A101850419012AA002150126A0EA
:1003100002950175108100C005010906A10185063D
:10032000050719E029E715002501950875018102E7
:100330000507190029EF1500250195F075018102C7
:1003400005081901290595057501910295017503A7
:100350009101C005010906A101050719E029E7156A
:100360000025019508750181029501750881010537
:1003700007190029FF150026FF0095067508810062
:10038000050819012905150025019505750191023A
:10039000950175039101C00011241FBECFEFDAE073
:1003A000DEBFCDBF11E0A0E0B1E0EEE2FFE302C0AE
:1003B00005900D92A639B107D9F722E0A6E9B1E080
:1003C00001C01D92AE3CB207E1F70E9431110C94BE
:1003D000561F0C9400008330B8F46730A8F44930FD
:1003E00098F450E099E0699F400D511D1124FA01E5
:1003F0009FE3899FE00DF11D1124EE0FFF1FE455CF
:10040000FF4F85919491089581E090E008950E94B6
:10041000EB01089581E008950E940A02089581E0A9
:1004200008950E940A0208950E94110208950895F5
:100430000E9417020895A6E0B0E0E1E2F2E00C9419
:10044000B21E49835A839E8330919D0189819A818E
:1004500031111AC03E81332399F0222389F00E9482
:10046000AB07182F682F89819A810E9487076981BD
:100470007A81812F0E94920E2696E3E00C94CE1E84
:100480000E949907182FF3CF0E94AB0769817A81E8
:10049000F1CFFC01262F40815181628173818481DB
:1004A00095810E941B020895CF93DF93EC0161E0D8
:1004B0000E944902BE010E940C02DF91CF91089573
:1004C000CF93DF93EC0160E00E944902BE010E94DD
:1004D0001802DF91CF91089508950E945C060E9452
:1004E0006C022FEF84E39CE0215080409040E1F7C4
:1004F00000C0000008950E946D020E94D91708955F
:100500000E946D020E94EA1708950F931F93CF93E4
:10051000DF938C0161E00E944902EC01B8010E9466
:100520001402811106C080E0DF91CF911F910F91DD
:100530000895B801CE010E9431158823A1F3B801B6
:10054000CE010E94C713882371F3B801CE010E9427
:10055000A314882341F3F8018581882361F0C33017
:10056000FCE7DF07E9F058F4C115ECE7DE07A9F076
:10057000C130DC47B9F0C8010E940F02D5CFCB359E
:100580008CE7D807A9F0CC35ECE7DE0771F0CA3567
:10059000DC4789F70E94E10BEECF0E947B02C3CFBC
:1005A0000E94E90B0E948002BECF0E94D70BE3CFCE
:1005B0000E94E50BE0CF0E940A170E9402030895F3
:1005C0000E9406030E940F170895089581E0089580
:1005D0000895CF93DF93D82F0E94E602C82F882377
:1005E00019F08D2F0E94E8028C2FDF91CF91089592
:1005F0000895CF93C82F0E94E5028C2F0E94E90234
:10060000CF91089580E00E94F90208950E947A1522
:100610000E94F9020895CF930E947A15C82F809105
:1006200098018C1779F0C09398010E949A176093F3
:10063000990170939A0180939B0190939C018C2F58
:100640000E94F902CF910895ADE0B0E0EAE2F3E054
:100650000C94B31E488759876A877B878C879D8750
:1006600091110E940F0B1F8286E0FE013896DE0179
:10067000119601900D928A95E1F78D8181110DC03F
:1006800029813A814B815C816D817E818F810E94BD
:10069000420A2D96E2E00C94CF1ECE0101960E94F4
:1006A00054028111EDCFF5CFFC012481213021F4DA
:1006B000808191810E94DD070895662329F00E94C0
:1006C000C8110E949B1208950E942212FACFCF9364
:1006D000C82F8823B9F08CEF8C0F813AA8F46C2FC7
:1006E00080910001909101010E940D16882329F04C
:1006F0008C2F0E94CF0A0E94480B8C2F0E94C70AA1
:100700000E94480BCF91089580E28C0F883048F406
:10071000C77081E001C0880FCA95EAF70E94F20A0B
:10072000EFCFEBE5EC0FE33040F4F0E0E75BFE4F9A
:10073000808190E00E94AF15E5CFE8E5EC0FEB314A
:1007400050F4F0E0EE0FFF1FED5EFE4F80819181CF
:100750000E94D415D7CF83E38C0F833198F661E0E4
:100760008C2F0E945D03CECF882381F19CEF980FE0
:10077000913A28F40E94CF0A0E94480B089590E213
:10078000980F983050F4877091E001C0990F8A95C6
:10079000EAF7892F0E94F80AEFCF9BE5980F933074
:1007A00028F490E080E00E94AF15089598E5980F36
:1007B0009B3128F490E080E00E94D415089593E3E3
:1007C000980F933118F460E00E945D0308951F9321
:1007D000CF93DF93182FEB010E946703209739F422
:1007E000812F0E94B403DF91CF911F9108958FE96B
:1007F0009FE00197F1F700C000002197EFCF70E074
:1008000060E0893311F460E570E00E94E703089529
:10081000882321F00E94F20A0E94480B0895882341
:1008200021F00E94F80A0E94480B0895B0E0A0E071
:10083000ECE1F4E00C94AC1E6C01D62FC72FFC0148
:100840001581068102950F700E94E80AE82E882320
:10085000E9F0E12E1123D1F08C2F807F803451F00C
:1008600080E28D0F8830F8F0011104C08C2F807E5B
:100870008032C9F08091A00282FF15C082E00E9400
:10088000AB0B0E94E80A91E0E82EE926BC2EB29458
:100890009FE0B922FBE0FB15B8F1EB2DF0E0E85A40
:1008A000F04E0C949D1EE12CF1CF0C2F0F70C07FE9
:1008B00011F00295007F112399F0002359F080E296
:1008C0008D0F883010F0D11107C0802F0E94F20ADE
:1008D0000E94480B8D2F5AC0802F0E94020BF8CF28
:1008E0008D2F0E94B403002379F080E28D0F8830B1
:1008F00010F0D11104C0802F0E94F80A03C0802F8D
:100900000E94080B0E94480BEB2DE850FF0B349718
:1009100020F40E947A150E94F902EE2089F00E94CC
:10092000E40A80FD0DC0F60115820E94DE0A0E94D5
:10093000E506C6010E9423060E94DE0A0E94F50613
:10094000CDB7DEB7E9E00C94C81E2C2F2F70F22E25
:10095000C07FC03219F0F29480EFF822DD2341F01D
:10096000D130D1F1112309F444C00023F1F0B2CF0A
:100970008091A00282FD15C0112359F0FF2029F0BB
:100980008F2D0E94F20A0E94480B80E00E946703AC
:10099000BBCF80E00E94B403FF2009F4B5CF8F2DB8
:1009A000ABCF112369F0011104C08F2D0E94080400
:1009B000ABCF013009F0A8CF8F2D0E94260BA4CF1A
:1009C0000111A2CF8F2D0E940F048F2D0E94320B98
:1009D0008F2D0E94160B98CF112321F0063008F0BE
:1009E00093CFE3CF053008F08FCF8F2D0E940F04F7
:1009F0008BCF0023D1F3D93349F43FEF87EE93E057
:100A0000315080409040E1F700C000008D2F0E94DF
:100A1000B4037ACF8C2F86958695837069F08130E8
:100A200009F072CF8D2F9C2F9370111102C080E0BE
:100A300090E00E94D41568CF8D2F9C2F93701111D8
:100A400002C080E090E00E94AF155ECF612F8D2F35
:100A50000E945D0359CF8C2F8370A1F5111154CFE3
:100A60004D2F429546954770440F440F2D2F2F7000
:100A700030E0042E02C0220F331F0A94E2F790E008
:100A800080E0D4FF09C08FE090E002C0880F991F7A
:100A90004A95E2F780959095C695C695C370822BCE
:100AA000932BC23049F058F4C13019F00E94B506BA
:100AB0002BCF0E94AC0628CF0E94BE0625CF0E94F5
:100AC000A90622CF8695112311F08C2F81708823DF
:100AD00009F41ACF4D2F429546954770440F440FA5
:100AE0002D2F2F7030E0042E02C0220F331F0A94E6
:100AF000E2F790E080E0D4FF09C08FE090E002C010
:100B0000880F991F4A95E2F780959095C695C695EE
:100B1000C370822B932BC23049F058F4C13019F0C6
:100B20000E942007F1CE0E941707EECE0E942907EF
:100B3000EBCE0E94CD06E8CECF70112329F08C2F8A
:100B40000E94E5068D2F32CF8D2F0E940F048C2F2F
:100B50000E94F506D9CED23F41F160F4D03FB9F002
:100B6000D13F81F0112309F446C00111B3CE8C2F7F
:100B70008F711FC0D33F01F1D43FA1F78091A00234
:100B800082FD24C08C2F8F71112311F312C0112309
:100B900041F0053008F0B8CE8C2F8F710E94070706
:100BA000B3CE063008F0B0CEF7CF8C2F8F71111175
:100BB000CFCF0E94E506A8CE112329F08C2F8F718C
:100BC0000E94D906A1CE0E94D4069ECE112349F0E0
:100BD000CF718C2F0E94E50663E08C2F0E948D0B55
:100BE00093CE81E00E94AB0B023008F48DCE82E000
:100BF0000E94AB0B89CE002359F0D93309F006CF00
:100C0000EFEFF7EE23E0E150F0402040E1F7FCCEBB
:100C10008C2F8F719DCF0F931F93CF93DF93EC0198
:100C2000688179818D810E94E8078C010E943207DA
:100C30000E94A806B801CE010E941604DF91CF9150
:100C40001F910F910895CF93DF93EC018C8188233E
:100C500099F0CE010E948502811111C00E94E80A1C
:100C6000882351F08D81882339F08091A00282FF82
:100C700003C082E00E94AB0BDF91CF910895CE01BB
:100C80000E940B06CE010E946002F6CF90E080E049
:100C90000E94AF1590E080E00E94D4150E940F0BD7
:100CA0000E94480B0E94B7120E949B1208950E9456
:100CB000D70A0E94460608950E94FF0A0E9457061E
:100CC000089592959F70963091F058F4925F9F70BE
:100CD000923058F4803F19F030F4883E30F481E0CF
:100CE00008959A5FF4CF843FD1F380E00895883E61
:100CF000B0F3813FD1F7F3CFFC012481222339F0F7
:100D0000808191810E94DD070E946106089580E044
:100D10000895A6E0B0E0EFE8F6E00C94B31E269646
:100D2000E2E00C94CF1EA7E0B0E0E9E9F6E00C9415
:100D3000B31E2796E2E00C94CF1E08950E949D06F4
:100D400008950E949E069093C1018093C00108956A
:100D500008950E94A10608952091C0013091C1011B
:100D6000822B932B0E94A10608952091C0013091FF
:100D7000C101822393230E94A10608952091C001FE
:100D80003091C101822793270E94A10608950E94F5
:100D90009D0608950E94C70608950E94CA06909372
:100DA000BF018093BE01089590E080E00E94CD06CF
:100DB000089521E030E0A90102C0440F551F8A9533
:100DC000E2F7CA010E94CD06089521E030E002C09A
:100DD000220F331F8A95E2F78091BE019091BF01E7
:100DE000822B932B0E94CD06089521E030E002C0B3
:100DF000220F331F8A95E2F7209530958091BE012E
:100E00009091BF01822393230E94CD06089521E093
:100E100030E002C0220F331F8A95E2F78091BE01B5
:100E20009091BF01822793270E94CD0608952091BB
:100E3000BE013091BF01822B932B0E94CD060895F5
:100E40002091BE013091BF01822393230E94CD06E1
:100E500008952091BE013091BF01822793270E94FF
:100E6000CD0608950895262F277091E001C0990FAF
:100E70002A95EAF723E0769567952A95E1F7660FBC
:100E8000771F660F771FFA01E60FF71F50E040E06B
:100E9000682F70E08191DF0111979B01042E02C041
:100EA000369527950A94E2F7217021952827292362
:100EB00028272C934F5F5F4F4430510559F7089511
:100EC000A82FA77023E0969587952A95E1F7880FBC
:100ED000991F880F991FFB01E80FF91F50E040E0B0
:100EE00080E0219130E00A2E02C0369527950A94C1
:100EF000E2F721703327042E01C0220F0A94EAF78B
:100F0000822B4F5F5F4F4430510559F70895262FCC
:100F1000973070F4893060F4682F70E089E0989F12
:100F2000600D711D11244EE951E0822F0E9433079C
:100F30000895292F973068F4893058F490E06EE9CD
:100F400071E039E0239F800D911D11240E946007FC
:100F5000089580E00895B0E0A0E0E1EBF7E00C94A4
:100F6000AC1E7C010091BE011091BF018091C001B7
:100F70009091C101082B192BCFE0D0E0CC24C39471
:100F8000D12CBC2EC6010C2E02C0880F991F0A94CA
:100F9000E2F780239123892B49F4219790F7B12C14
:100FA0008B2DCDB7DEB7E9E00C94C81EB7018C2FAE
:100FB0000E949E0E019789F3F3CFCF93DF93EC014C
:100FC0000E94AB07BE010E949E0EDF91CF91089553
:100FD0001F93CF93DF93EB0190919D01992339F0FB
:100FE000CB010E94DD07DF91CF911F9108958823E7
:100FF00069F0CB010E94AB07182F682FCE010E9429
:101000008707BE01812F0E949E0EEDCFCB010E946B
:101010009907182FF6CF1F93CF93DF93C091C2018A
:1010200017E08091C3018C1304C0DF91CF911F9111
:101030000895D0E01C9FF0011D9FF00D1124EC538A
:10104000FE4F208131814281538164817581868187
:101050000E9493062196C770E4CF2091FC01309145
:10106000FD014091FE015091FF01609100027091DD
:101070000102809102020E9493060895CF93DF93AC
:1010800080910202807F09F04DC080910102882387
:1010900009F448C0E091C2015091C301C091FD0123
:1010A000D091FC016091FE017091FF0147E05E1755
:1010B000C9F18E2F90E0E49FF0011124EC53FE4F14
:1010C0002481222391F1489FF001499FF00D1124C2
:1010D000DF01AC53BE4F11962C9111972C1325C0F4
:1010E0002C912D1322C015962C91159721111DC0FE
:1010F00012962D913C91261B370B283C3105A8F404
:10110000809102028F70806180930202E653FE4F4D
:1011100080818F70806180838CEF91E00E94230634
:101120000E940B08DF91CF910895FC013196E77082
:10113000BECF482F2091C2019091C30157E02913DF
:1011400002C080E0089530E0529FF001539FF00DFF
:101150001124EC53FE4F8181681306C0808148132F
:1011600003C085818111EECF2F5F3F4F2770E7CFFE
:10117000A4E1B0E0EEEBF8E00C94A91E8C0186E04F
:10118000F801DE011F9601900D928A95E1F7F801B2
:101190008481E5809CEFA92E91E0B92E9091000208
:1011A00091111FC08823D1F0EE20A9F0C8010E9440
:1011B0007C06F82E882379F087E0F801D5010190AC
:1011C0000D928A95E1F7C5010E9454030E943E08E2
:1011D0000E942D085FC0C8010E942306FF24F394DB
:1011E00059C0C080D18082809380F090010220910C
:1011F000FE013091FF01A401421B530BFF2009F4B3
:10120000F9C0483C510508F0A7C0882309F442C042
:101210009091FD0180910202282F207F09F05CC08F
:101220009D1116C09091FC01C91212C0E1104EC070
:101230008F708061809302020E942D088CEF91E0F4
:101240000E94230680910202F8018683F12C22C0BD
:10125000E1103CC06D2D8C2D0E9499086D2D8C2DB8
:101260000E949908E82E8111F1CFCF86D88A8F8508
:1012700098890E94DD07292F22952F70243078F459
:101280009F702230A8F09923B9F0F8019681907FE1
:1012900099F4FE2C8F2D6496ECE00C94C51E2A5F09
:1012A0002F70223068F0C8010E942306EF2CF1CF86
:1012B000992311F0882369F3805E883050F3F3CFCF
:1012C000803F38F3815F833070F7E3CF8091020273
:1012D000816080930202BACF9D1113C09091FC01EE
:1012E000C9120FC0E1100DC08683C8010E942306F9
:1012F00087E0F801ACEFB1E001900D928A95E1F73B
:1013000067CFC8010E947C06882309F464CFEE20D1
:1013100009F461CF80910202803288F02091FC01B3
:101320003091FD01398728879B868A86909100023B
:101330009C871D868E87CE0108960E94230687E033
:10134000F801ACEFB1E001900D928A95E1F70E94AF
:101350003E080E942D0842CF90910202292F207F43
:10136000A1F4682D9A8A898AA6017A899E2D0E9405
:1013700089068CEF91E00E94230687E0F501119227
:101380008A95E9F70E942D0861CF882309F482CF5E
:101390008091FD018D1110C08091FC01C8120CC01C
:1013A000E1100AC09683C8010E94230687E0F50178
:1013B00011928A95E9F76ECFC8010E947C068823B6
:1013C00009F409CFEE2009F406CF809102028032A1
:1013D00008F4B5CF2091FC013091FD013A832983B7
:1013E0009C828B82909100029D831E828F83CE010E
:1013F0000196A3CF483C5105B8F5882309F4EECEF9
:10140000FE2CEE2009F4E7CE8091FD018D111EC067
:101410008091FC01C8121AC08091020280FD0DC0AB
:10142000982F907F51F08683903F09F45ECF982FDC
:10143000907F905F8F70892B57CF87E0F801ACEFDA
:10144000B1E001900D928A95E1F724CFC8010E9486
:101450007C06811174CF8091020281608093020228
:10146000C8010E94230616CF682D9A8A898AA60190
:101470007A899E2D0E94890687E0F50111928A954E
:10148000E9F7A6CEAEE0B0E0E8E4FAE00C94B21ED4
:10149000288739874A875B876C877D878E87CE014F
:1014A00008960E94B8088823B1F06C85662341F045
:1014B000288539854A855B857D858E850E949306C2
:1014C00017E08091C2019091C30189133DC02E960F
:1014D000E3E00C94CE1E87E0FE013896DE01119603
:1014E00001900D928A95E1F78C85882349F320912C
:1014F000C30130E0C9010196877099274091C2016C
:101500004817190699F097E0929FD001939FB00D6C
:101510001124AC53BE4FFE01319601900D929A9565
:10152000E1F78093C3010E940B08CACF0E945C06BA
:101530001092C3011092C20187E0ECEFF1E0DF01ED
:101540001D928A95E9F7BCCF819FC00111248C536D
:101550009E4F0E94B808882309F4B9CFE091C201D8
:101560001E9FF0011124EC53FE4F208131814281F6
:1015700053816481758186810E9493068091C201A6
:1015800090E00196877099278093C2019ACF682FC7
:1015900080910001909101010E948D160895682F9D
:1015A00080910001909101010E949B160895809105
:1015B0000001909101010E94A916089580912302D3
:1015C0008695869586950895809123028770089563
:1015D00090912302977081E009F480E00895809152
:1015E0004702089590914702892B809347020895FE
:1015F0008095909147029823909347020895109206
:101600004702089590914602892B809346020895DF
:1016100080959091460298239093460208951092E7
:101620004602089508950E94120B08959091240295
:10163000292F282331F080958923809324020E944A
:10164000130B089508950E94220B0895909125028E
:10165000292F2823281729F0982B909325020E94E0
:10166000230B089590912502292F282331F080958E
:101670008923809325020E94230B089580912502DF
:10168000882329F01092250280E00E94230B089500
:10169000CF93DF93E0910001F09101018091470227
:1016A0008083E0910001F0910101808190914602D8
:1016B000892B808390912502992381F0E09100018C
:1016C000F09101018081892B8083809100019091AC
:1016D00001010E94F91581110E943E0BC091000189
:1016E000D091010140E250E063E072E0CE010E943F
:1016F000EE1E892B59F080E2FE01A3E0B2E00190DA
:101700000D928A95E1F7CE010E948715DF91CF9166
:10171000089508950E94890B08959091A00292FF68
:1017200011C098E0899F90011124622B60932302DD
:101730000E94E506809123028695869586950E94F3
:101740008A0B08950E94E50608951092230280E016
:101750000E948A0B0895909123028095892380939B
:101760002302282F277069F4891759F09091A0025D
:1017700092FF07C08695869586950E94F5060E9481
:10178000A50B08959091A00292FB222720F928171B
:1017900069F080FB92F99093A00280919F02909152
:1017A000A0020E940A0C82E00E94AB0B0895809177
:1017B000A00282FB882780F991E089270E94C20B52
:1017C000089581E00E94C20B089580E00E94C20B40
:1017D00008956FEF7FEF90E080E00E94401F089532
:1017E00090E080E00E940C1F21E0863E9E4F09F0B1
:1017F00020E0822F089582E090E00E94041F089567
:1018000083E090E00E94041F089584E090E00E942D
:101810000C1F0895BC0184E090E00E94401F0895D1
:10182000AB01BC018FE090E00E94341F0895AB0132
:10183000BC0183E190E00E94341F089560E070E0F5
:10184000CB010E94170C089560E070E0CB010E946C
:10185000100C0E941E0C0895A8E0B0E0E2E3FCE04A
:101860000C94B31E66EE7EEF90E080E00E94401F75
:1018700060E082E090E00E94221F60E083E090E060
:101880000E94221F1092C1011092C00160E074E119
:1018900084E090E00E94401F60E086E090E00E94BB
:1018A000221F6FEF87E090E00E94221F40E050E08F
:1018B000BA0188E090E00E94341F60E084E290E08A
:1018C0000E94221F60E087E190E00E94221F60E0FA
:1018D0008CE090E00E94221F60E08DE090E00E948A
:1018E000221F19821A821B821C821D821E821F8265
:1018F000188648E050E068E170E0CE0101960E9451
:10190000121F40E050E0BA0180E290E00E94341FD4
:101910000E94240C2896E2E00C94CF1E0E942C0C0E
:101920000895682F8EE090E00E94221F0895A6E09F
:10193000B0E0EDE9FCE00C94B11E0E948E178C0122
:1019400080914802909149028017910781F0198295
:101950001A820E948E17682F49815A81792F80E060
:1019600090E00E94240310934902009348022696B7
:10197000E4E00C94CD1E0E949A1760935C02709371
:101980005D0280935E0290935F02609358027093B1
:10199000590280935A0290935B0208950895089526
:1019A0000E94CE0C089508950E94D30C089584E9F6
:1019B0009FE00E943E110E94CF0C0E94D00C08951F
:1019C00081E008950E94E00C08950E94E00C0895C3
:1019D000089508950E94E80C0E94E90C08950E9461
:1019E000B30F0E94F80208950E9485170E9492107A
:1019F0000E94EF0C0E94D40C0895A6E0B0E0E3E052
:101A0000FDE00C94A71E0E94E20C81110AC00E9406
:101A1000970C0E94D9120E940B032696EEE00C94BC
:101A2000C31E0E94A8102AE4822E22E0922E640196
:101A300010E0F601E190F1906F01812F0E94D90F23
:101A40001F5F173009F44BC0E816F90691F3809137
:101A5000600281FD0E94E20F0E94E50C782E10E0EA
:101A600066246394812F0E94D90F7C01F401A19018
:101A7000B1904F018A159B0561F100E0CC24C3941D
:101A8000D12CAE24BF24C5018C219D21892BC1F00E
:101A90007720B1F009831A830E948E179C838B8371
:101AA0006D8221E0C7018C219D21892B09F420E062
:101AB00049815A816B817C818D81922F0E94240300
:101AC0000F5FCC0CDD1C0930F1F6F4013297F18286
:101AD000E0821F5F173031F60E94BB0C9ACFE816E8
:101AE000F90609F0B4CF93CF1F93CF93DF930E94F1
:101AF000A30EEC01C11580E5D807F0F5C11580E40F
:101B0000D80708F09CC0C03ED10520F5CD3CD105DA
:101B100008F082C0C83AD10578F4C53AD10508F07A
:101B200073C0C130D10519F1209709F1C430D10536
:101B3000F0F4D0E0C0E01BC0C33CD105D0F7C85AD8
:101B4000D0E0CC0FDD1FC45BDE4F0990D881C02DE3
:101B5000D4640DC0C11580E2D80708F0D1C0C1150A
:101B600081E0D80708F05AC0C83ED10510F7CE0171
:101B7000DF91CF911F910895C03682E5D80718F5FF
:101B8000C03482E5D80708F06BC0C03282E5D807C0
:101B900008F05FC0C11582E5D80708F497C02C2F64
:101BA0002695269580E2289F900111248C2F837022
:101BB000C1E0D0E002C0CC0FDD1F8A95E2F7C22B56
:101BC000D32BDD68D4CFC03A82E5D80760F4C038A3
:101BD00082E5D80708F459C0CF71D0E0DC2FCC27BC
:101BE000C46FD06AC4CFC03C82E5D80708F462C095
:101BF000C03E82E5D80708F09CCFDC2FCC27CC274D
:101C0000DF71C06FD06AB3CFC55AD0E0CE57DE4F78
:101C1000C881D0E0D064ABCFD065A9CF8D2F0E9412
:101C2000450F182FCE0199270E94A30EC12FD0E097
:101C3000DC2FCC27CC27DF71C82BD92B98CFCE0136
:101C400099270E94A30ECC27DF70C82BD92BD06A0E
:101C50008ECFCF71D0E0DC2FCC27C16FD06A87CF79
:101C60002C2F26952695277080E2289F900111241D
:101C70008C2F8370C1E0D0E002C0CC0FDD1F8A95AD
:101C8000E2F7C22BD32BDC6872CF2C2F269526953A
:101C9000277080E2289F900111248C2F8370C1E06F
:101CA000D0E002C0CC0FDD1F8A95E2F7C22BD32B08
:101CB000DA685DCF8C2F8F710E94450FC82FD0E05E
:101CC000DC2FCC27CC27DF71D06251CF8C2F8F71C6
:101CD0000E94450F55E0D695C7955A95E1F7CF700C
:101CE000D0E0DC2FCC27282F30E084FF05C044E073
:101CF000220F331F4A95E1F7C22BD32BD06937CF80
:101D00008D2F8F710E94450F182FCE0199270E94A9
:101D1000A30EC12FD0E0DC2FCC27CC27DF71C82B3E
:101D2000D92BD2CF462F773030F4693020F4672F8B
:101D30000E940702089590E080E008950E94920EAC
:101D40000E94740D089582389105B9F1B0F4813381
:101D5000910509F47DC048F48932910509F46DC0FC
:101D60008A32910509F47BC008958533910509F401
:101D70005FC08933910509F10895833E9105D9F13A
:101D800038F4803E910529F1823E910579F108955C
:101D9000863E9105D9F1873E910509F43EC0843E07
:101DA000910541F52091A00221FF24C080919F025E
:101DB00084FD19C087EE90E0089520919F02237062
:101DC00009F05AC02091A00223FF14C089E290E0DC
:101DD000089520919F0220FD38C03091A00230FF6D
:101DE00009C024FF43C090E080E0089520919F0245
:101DF00022FDF7CF089520919F0222FD3AC0309135
:101E0000A00230FD39C024FFF5CFEDCF20919F0215
:101E100023FFF0CF24FDE7CFCDCF20919F0223FDFC
:101E20002EC03091A00231FFEECF84EE90E00895F5
:101E300020919F0225FFDECFC9CF20919F0225FD73
:101E400021C02091A00223FFD5CF89E390E0D2CF1B
:101E500020919F0226FFCECF8AE290E00895209144
:101E60009F0226FFC7CF81E390E0089583EE90E0C4
:101E7000089582EE90E0089580EE90E0089586EE59
:101E800090E0089585E390E0089590919F0292FF7D
:101E900010C041E0282F2471243009F040E031E0E7
:101EA000282F2871283009F030E0431711F02CE07A
:101EB000822793FF10C041E0282F2471243109F0BC
:101EC00040E031E0282F2871283109F030E0431735
:101ED00011F02CE082273091A00230FF10C051E0B9
:101EE000282F2171213009F050E041E0282F28717E
:101EF000283009F040E0541711F029E0822731FF23
:101F000010C041E0282F2171213109F040E031E07B
:101F1000282F2871283109F030E0431711F029E00B
:101F2000822794FD877E089580E008950E94E90B42
:101F300008950E94A8102FEF86E791E0215080407D
:101F40009040E1F700C000000E94A81080E00E94CD
:101F5000D90F80FF04C00E94960F0E94D9170895E0
:101F60000E94990F08950E94F00B811102C00E94F7
:101F70008E0C0E94FB0B809360020E94050C9093D4
:101F8000A00280939F020E94B00F0E94000C90E07C
:101F90000E94A9068091BE019091BF010E94CA06CD
:101FA000089508950E94D10F089508950E94D50FB5
:101FB0000895E82FF0E0EE0FFF1FE155FD4F8081FF
:101FC00091810895089580EA8A95F1F7089500C0F7
:101FD00008950E94E30F0895F894E82FE295EF70BA
:101FE000F0E031A1282F2F7081E090E001C0880F30
:101FF0002A95EAF7982F9095932391A392A1892B84
:1020000082A3789408950F931F93CF93DF93CEE824
:10201000D1E089918F3F11F00E94EC0F81E0C5392A
:10202000D807B9F7C5E8D1E00EE811E089918F3FF4
:1020300011F00E94EC0F0C171D07C1F7DF91CF9133
:102040001F910F910895AF92BF92DF92EF92FF928E
:102050000F931F93CF93DF938C01D62EC62FD0E022
:10206000CE0182579E4F7C01FC0120812F3F09F455
:102070004CC0F894E22FE295EF70F0E031A12F70A0
:1020800081E090E001C0880F2A95EAF7932F982B02
:1020900091A392A18095892382A378940E94E70F4F
:1020A000E5E8F1E041E050E0B12CA12C21912F3F77
:1020B000B1F1A22FA295AF70B0E090968C9190E014
:1020C0002F7002C0959587952A95E2F780FD27C06D
:1020D000CA01A82AB92A440F551F81E0EE38F80733
:1020E00029F7F70180818F3F11F00E94EC0F61E02A
:1020F000A114B10409F460E08D2D0E94E90FCC0F0A
:10210000DD1FC00FD11FB982A882DF91CF911F912F
:102110000F91FF90EF90DF90BF90AF90089590E007
:1021200080E0D7CF0E9403108EE0EFEAF2E0DF01FB
:10213000982F1D929A95E9F7E1EAF2E0DF011D92EE
:102140008A95E9F787E00E94E3100E94D20F089574
:10215000AEE0B0E0EEEAF0E10C94B01E8E010F5F4D
:102160001F4F8EE0F80111928A95E9F7F12C6F2D3F
:10217000C8010E942310F394F7E0FF12F8CF4EE05D
:1021800050E0B80181EA92E00E94EE1E21E0009743
:1021900009F420E0892B41F08EE0F801A1EAB2E0D9
:1021A00001900D928A95E1F747E06FEA72E081EACB
:1021B00092E00E94E410182F0E94D60F812F2E96D5
:1021C000E5E00C94CC1E0895CF92DF92EF92FF923F
:1021D0001F93CF93DF936C017B01C42F222349F01F
:1021E00081E0809363020E948E1790936202809335
:1021F00061021091630211110AC010E0812FDF917A
:10220000CF911F91FF90EF90DF90CF900895809134
:102210006102909162020E94A617059770F3D0E0C8
:10222000CC0FDD1FAE01B601C7010E94EE1E892B47
:1022300041F0AE01B601C7010E94FB1E109263027D
:10224000DDCF10E0FBCF0E945F190E94F40C0E94CA
:102250006C1908950E9471190E94FD0C0E948B193F
:1022600008950E9427170E9445190E94D70C0E94CA
:1022700023110E942A110E94EA0CFBCF9093970130
:10228000809396010895282F35EB2303C001112474
:1022900097FF04C080589109892F089580589F4F57
:1022A000FBCF80916A0280FF0DC06091070170E052
:1022B000660F771F6038710570F56115710569F15A
:1022C000862F089581FF07C06091070184E0689F11
:1022D000B0011124EFCF6091070182FD0AC0809107
:1022E00069028823A9F020910601609107018217F5
:1022F00010F088E0ECCF869FC001112433E0880FF6
:10230000991F3A95E1F7622F70E00E94891ED2CFA3
:1023100068E070E0D5CF8FE7089581E0089580915F
:102320006A0280FF0CC06091030170E075956795AB
:10233000759567956115710549F1862F089581FF9F
:1023400006C06091030170E075956795F3CF6091C9
:10235000030182FD0BC0909168029923A1F0609166
:10236000020180910301961738F0682F70E0603801
:10237000710500F38FE70895899FC001112470E073
:102380000E94891EF4CF61E070E0D7CF81E008950C
:102390008D3C31F40E945111819580936E02089515
:1023A0008E3C19F40E945111F8CF8F3C31F40E94F9
:1023B0005111819580936D020895803D19F40E941A
:1023C0005111F8CF893D29F40E948F1180936F023B
:1023D00008958A3D21F40E948F118195F7CF8B3D9E
:1023E00031F40E948F1181958093700208958C3D85
:1023F00019F40E948F11F8CF9FE2980F983070F473
:10240000815D990B21E030E001C0220F8A95EAF747
:1024100080916C02822B80936C0208958D3D31F483
:1024200080916A02816080936A0208958E3D21F452
:1024300080916A028260F7CF8F3DB9F780916A027E
:102440008460F1CF40916D028D3C59F480916E0211
:1024500087FF0DC010926E0241110BC010926902ED
:1024600008C08E3C81F480916E0218169CF34423C0
:1024700081F080916F0290917002892B09F05AC00F
:102480001092680208958F3C49F447FFF0CF1092F4
:102490006D0280916E028111ECCFE0CF803D19F486
:1024A0001416ACF3E4CF90916F02893D29F419160C
:1024B000F4F610926F02DBCF8A3D19F497FFD7CF65
:1024C000F8CF909170028B3D29F497FFD0CF1092F6
:1024D0007002CDCF8C3D19F41916CCF3C8CF9FE212
:1024E000980F983090F4815D990B21E030E0B901AC
:1024F00002C0660F771F8A95E2F7CB018095909115
:102500006C02892380936C02B2CF8D3D31F48091AF
:102510006A028E7F80936A02AACF8E3D21F4809159
:102520006A028D7FF7CF8F3D09F0A1CF80916A02BB
:102530008B7FF0CF08950E948E179C0190916D02C1
:1025400080916E02982B21F03093670220936602EF
:1025500090916F0280917002982B21F03093650268
:10256000209364028BE692E00E94A115089586E014
:10257000EBE6F2E0DF011D928A95E9F7109269021D
:102580001092680210926A020895FC018281811102
:102590000EC0838181110BC08481811108C091E03C
:1025A0008581811101C090E0892F8170089581E0BB
:1025B000FCCFA6E0B0E0EFEDF2E10C94B21E86E0B5
:1025C000EBE6F2E0DE01119601900D928A95E1F7BB
:1025D00010926D0210926E0210926F0210927002B1
:1025E0008B819C81892B89F0809166029091670292
:1025F0000E94A617AC01909169029923C9F18091BC
:1026000008018417150608F440C08D819E81892B2E
:1026100091F080916402909165020E94A617AC012E
:1026200090916802992309F46AC08091040184178B
:10263000150608F472C0BE016F5F7F4F8BE692E013
:102640000E94BB16811105C08BE692E00E94C51264
:1026500081110E949B1286E0FE013196ABE6B2E04A
:1026600001900D928A95E1F72696E3E00C94CE1E38
:10267000209109018AE0289F900111242417350731
:1026800020F69F5F9093690202C09F3FD1F71B81A4
:10269000112359F00E9451119FEF11160CF491E093
:1026A000899F802D112480936D021C81112359F084
:1026B0000E9451119FEF11160CF491E0899F802D1B
:1026C000112480936E0280916D02882309F49DCFBE
:1026D00010916E02112309F498CF0E9443118823B0
:1026E00051F080936D02812F0E944311882329F0BD
:1026F00080936E028ACF81E0F4CF81E0F9CF209100
:1027000005018AE0289F900111242417350708F05D
:1027100092CF9F5F9093680202C09F3FD1F71D81C7
:10272000112359F00E948F119FEF11160CF491E0C4
:10273000899F802D112480936F021E81112359F0EF
:102740000E948F119FEF11160CF491E0899F802D4C
:1027500011248093700280916F02882309F46BCF5B
:1027600010917002112309F466CF0E94431188234F
:1027700051F080936F02812F0E944311882329F02A
:102780008093700258CF81E0F4CF81E0F9CFCF93EE
:10279000DF93EC01FB018581882309F4D2C09E01FF
:1027A00030572332310508F0B2C00E94050C9093D7
:1027B000A00280939F02FE01E150F047E232F10552
:1027C00020F4EC59F04E0C949D1E80919F02816084
:1027D00080939F0293C08091A00288608093A002A2
:1027E0008DC080919F028260F3CF80919F028460B0
:1027F000EFCF80919F028860EBCF8091A002816033
:10280000EDCF8091A0028260E9CF80919F0280612C
:10281000DFCF80919F028062DBCF80919F02806436
:10282000D7CF0E945C0680919F028068D1CF8091B3
:102830009F028C60CDCF8091A0028360CFCF80912A
:102840009F028E7FC5CF8091A002877FC7CF8091E6
:102850009F028D7FBDCF80919F028B7FB9CF8091EA
:102860009F02877FB5CF8091A0028E7FB7CF8091E6
:10287000A0028D7FB3CF80919F028F7EA9CF8091E0
:102880009F028F7DA5CF80919F028F7BA1CF0E9459
:102890005C0680919F028F779BCF80919F02837F00
:1028A00097CF8091A0028C7F99CF80919F0282FB6D
:1028B000992790F921E0922790FB82F990FB83F908
:1028C00087CF8091A002982F909591708E7F892B51
:1028D00090FB81F983CF90919F02892F8F7B96FF88
:1028E000806476CF0E945C0690919F02892F97FBAF
:1028F00087F980586DCF81E00E94910C80919F02F2
:102900009091A0020E940A0C0E945C0680E0DF9178
:10291000CF91089580E0F0CF90919F02892F8F7E14
:1029200094FF806155CF90919F02892F8E7F90FFF9
:1029300081604ECF9091A002892F877F93FF88609E
:102940004DCF81E0E4CFCF93DF93EB0186319C47FD
:1029500011F50E94EF0A9D81992399F08A7A91E0FE
:1029600009F490E090937102811109C089E20E94FC
:10297000C70A0E94480B80E0DF91CF91089585E35C
:10298000F6CF80917102811104C089E20E94CF0AC2
:10299000F0CF85E3FBCF81E0EFCF0F931F93CF9371
:1029A000DF93C42FD22FFC0185818823C9F0409387
:1029B00074020E948E17909373028093720280E2D9
:1029C0008C0F883040F4C77081E001C0880FCA9531
:1029D000EAF70E940804DF91CF911F910F910895AB
:1029E00010917402141332C080917202909173029C
:1029F0000E94A617883C910548F5C0E2CD0F1D172F
:102A0000B9F080E2810F883040F4177081E001C096
:102A1000880F1A95EAF70E940F04C83048F481E045
:102A20009D2F977001C0880F9A95EAF70E940804BD
:102A3000802F0E94FF03C83070F6D77081E001C07C
:102A4000880FDA95EAF70E940F04C5CF80E28C0F59
:102A5000883008F6C77081E001C0880FCA95EAF790
:102A6000F2CF0F93DB0188519C4787309105A0F589
:102A7000FC01EA57F04E0C949D1E06E221EE41EE59
:102A80006AE17CE7CD010E94CD1480E00F910895AA
:102A900007E225EE45EE6BE17CE7F4CF06E221EE9E
:102AA00040EE68E17CE7EECF07E225EE44EE69E117
:102AB0007CE7E8CF06E221EE42EE6CE17CE7E2CF74
:102AC00007E225EE46EE6DE17CE7DCCF08E221E08F
:102AD00045EE6EE17CE7D6CF15968C91882319F0F0
:102AE00010927402D3CF81E0D1CF90937A02809379
:102AF00079020895E0917902F0917A02309729F0F5
:102B00000190F081E02D0995089580E00895E0910D
:102B10007902F0917A02309799F0209112012223E4
:102B200059F020919F0227FF07C0DC012C911196DC
:102B30002C93119726E02C930280F381E02D0995C8
:102B40000895E0917902F0917A02309739F022E00D
:102B5000DC012C930480F581E02D09950895A3E014
:102B6000B0E0E5EBF5E10C94B31E209177023091D3
:102B7000780228173907A1F09093780280937702A2
:102B8000E0917902F0917A02309751F023E02983A5
:102B90009B838A830680F781E02DCE0101960995FB
:102BA0002396E2E00C94CF1EA3E0B0E0EAEDF5E15D
:102BB0000C94B31E209175023091760228173907C4
:102BC000A1F09093760280937502E0917902F091E2
:102BD0007A02309751F024E029839B838A83068010
:102BE000F781E02DCE01019609952396E2E00C9441
:102BF000CF1EFC01329680911201882321F0809132
:102C00009F029EE187FF96E080E0915008F40895CE
:102C100021912223D1F38F5FF8CF662301F1209118
:102C200012012223F1F020919F0227FF1AC0462FA4
:102C30004695469546954E3190F4677021E030E018
:102C400002C0220F331F6A95E2F7840F911DFC0129
:102C5000828190E02823392381E0232B69F480E0EE
:102C60000895FC01329608962191261721F0E81765
:102C7000F907D1F7F4CF81E008959C01FC01329669
:102C80009FEF80E04191461751F09F3F19F44111A9
:102C900001C0982F8F5F8630A9F79F3F09F40895F0
:102CA000290F311D97FD3A95F90162830895FC01C2
:102CB000329608962191261303C0DF0111971C92CA
:102CC000E817F907B9F70895E62FE695E695E69532
:102CD000EE3168F4E80FF92FF11D677021E030E064
:102CE00001C0220F6A95EAF78281822B82830895C0
:102CF000E62FE695E695E695EE3170F4E80FF92FAC
:102D0000F11D677021E030E001C0220F6A95EAF7FB
:102D10002095828128232283089520911201222365
:102D200039F020919F0227FF03C00E946416089586
:102D30000E943D16089520911201222339F020911E
:102D40009F0227FF03C00E94781608950E9457161D
:102D50000895FC01329680911201882351F08091F0
:102D60009F0287FF06C08EE1DF011D928A95E9F779
:102D7000089586E0F9CFDC01FB0111969C91119733
:102D80008181981322C012968C911297882319F092
:102D9000928189131AC013968C911397882319F086
:102DA0009381891312C015968C911597882319F079
:102DB000958189130AC014969C91992321F081E092
:102DC0002481291303C080E001C081E0817008954F
:102DD00008950E94E8160895811106C081E080934D
:102DE0007B020E94E916089582E0F9CF83E0809388
:102DF0007B020E94E91608950E94EC16089581E076
:102E000080937B020E94E91608950E94FF160895A0
:102E1000089508950E9409170895089508950E943D
:102E200008170895CF930E940D170E94A8100E94C2
:102E30000E17C0E08C2F0E94D90F892B31F4CF5F81
:102E4000C730C1F780E0CF91089581E0FCCF85B70E
:102E5000806885BF85B7806885BF08951F921FB6BB
:102E60001F9211248F939F93AF93BF9380917C0205
:102E7000811113C08091BD029091BE02A091BF024A
:102E8000B091C0024196A11DB11D8093BD029093E7
:102E9000BE02A093BF02B093C002BF91AF919F91B9
:102EA0008F911F901FBE1F9018958091C50284308E
:102EB00031F10E94DB0210927C0288E190E020E474
:102EC0000FB6F894A895809360000FBE2093600021
:102ED00083B7817F846083BF83B7816083BF789429
:102EE000889583B78E7F83BF0FB6F894A89580919D
:102EF0006000886180936000109260000FBE0895AA
:102F00000E945C060E94E002089582E084BD93E086
:102F100095BD9AEF97BD80936E0008952FB7F894F2
:102F20008091BD029091BE02A091BF02B091C002FB
:102F30002FBF08952FB7F8946091BD027091BE0223
:102F40008091BF029091C0022FBF08959C014FB79E
:102F5000F8948091BD029091BE02A091BF02B09101
:102F6000C0024FBF821B930B089578941F921FB627
:102F70001F9211248F939F93AF93BF938091BD02B3
:102F80009091BE02A091BF02B091C0020196A11D16
:102F9000B11D8093BD029093BE02A093BF02B09377
:102FA000C002BF91AF919F918F911F901FBE1F9044
:102FB000189587E797E7909301088093000888E1C8
:102FC0009AE00FB6F894A895809360000FBE909396
:102FD0006000FFCF88E19AE00FB6F894A89580933F
:102FE00060000FBE90936000FFCF80919D02089516
:102FF0009B01BA019091C5029430E9F48F708093DF
:10300000E9009FEF8091E800915085FD06C085EDB5
:103010008A95F1F700009111F5CF8091E80085FFC6
:103020000AC050E040E0C9010E94021A8091E80005
:103030008E778093E800089543E050E0BC0182E081
:103040000E94F817089546E050E0BC0182E00E941B
:10305000F8170895CF93DF93EC018091120181114D
:1030600011C048E050E0BE0181E00E94F81780E204
:10307000FE01ADE7B2E001900D928A95E1F7DF9194
:10308000CF91089580919F0287FF05C040E282E0C2
:1030900050E0BE01EACF48E081E0FACF8091C4025F
:1030A000811109C00E94921B0E94EF1B8091E200D7
:1030B00084608093E20008951092C40208950E94F3
:1030C000FF1608956091C10281E0611101C080E0A6
:1030D0000E94F61608959091C50281E0943009F09F
:1030E00080E06091C1020E94FC16089542E061EC0C
:1030F00081E00E940E1B42E261EC82E00E940E1B06
:103100009091C50281E0943009F080E06091C102A5
:103110000E94EC1608958091C702833009F461C0C3
:1031200030F48130D1F1823009F49EC008958A30A4
:1031300009F48AC08B3009F46FC0893009F050C09F
:103140008091C602813209F04BC08091CA029091F1
:10315000CB02029708F044C08091E800877F8093FB
:10316000E8008091E80082FF37C09091F3008091E1
:10317000F200029731F48091F100813011F0863035
:1031800021F48091F10080939D028091E8008B777B
:103190008093E8000E94421B23C08091C602813ABE
:1031A000F9F48091E800877F8093E8008091CA025B
:1031B0009091CB02892B61F460E28DE792E070E0A0
:1031C0000E94511A8091E8008B778093E80008955F
:1031D00060E090E080E0F3CF8091C5028111C1CF23
:1031E00008958091C602813AD9F78091CA029091E0
:1031F000CB02892BA9F78091E800877F8093E800B4
:103200008091E80080FFFCCF809112018093F10053
:103210008091E8008E77BCCF8091C602813201F7A1
:103220008091CA029091CB02892BD1F68091E8005F
:10323000877F8093E8000E94421B8091C8028093A0
:1032400012010E945C0608958091C602813241F607
:103250008091E800877F8093E8000E94421B809164
:10326000C90280939E0208958091C602813A09F0B6
:10327000B7CF8091E800877F8093E8008091E800D5
:1032800080FFFCCF80919E02C1CF84B7877F84BF2F
:103290000FB6F894A89580916000886180936000D3
:1032A000109260000FBE80E890E00FB6F894809313
:1032B0006100909361000FBE0E94051708950E945F
:1032C000921B0E94EF1BE2EEF0E08081846080831D
:1032D00078940E946E1E08958AE091E00E94751510
:1032E00008958091C502853031F48091C502853002
:1032F00019F00E94801708950E9455178091C3020B
:10330000882399F30E941217882379F30E94EC19FD
:103310000E945C06EACF08959A014091CC02509138
:10332000CD020E9494190895492F55274330510525
:1033300019F168F44130510509F444C04230510597
:1033400009F445C090E080E050E040E025C0413203
:10335000510549F142325105A9F784E490E043E573
:1033600053E061157105C1F086EB90E04DE952E044
:103370006130710589F0E6CF99278130910581F0A0
:10338000009729F00297F1F6E6E2F2E002C0ECE4E1
:10339000F2E0849190E0AF01F901518340830895F8
:1033A000E6E3F2E0F6CF89E090E042E652E0611514
:1033B000710591F389E090E04BE752E061307105CF
:1033C00059F3C0CF82E190E04BE852E0E5CF8BE3C8
:1033D00090E040E552E0E0CF80E189BD82E189BD27
:1033E00009B400FEFDCF8091D8008F7D8093D80076
:1033F0008091E00082608093E0008091E00081FD98
:10340000FCCF0895AF92BF92CF92DF92FF920F93BD
:103410001F93CF93DF936C01EB018A010E94611B24
:10342000F82E811123C00115110539F0F8018081B2
:103430009181C81BD90BC80ED91EB12CA12C209785
:10344000A9F08091E80085FD22C08091E8008E7788
:103450008093E80001151105A1F0F80180819181A8
:10346000A80EB91EB182A08285E0F82E8F2DDF91C3
:10347000CF911F910F91FF90DF90CF90BF90AF90B1
:1034800008950E94611B8823D1F2F82EEFCFF60138
:1034900081916F018093F1002197FFEFAF1ABF0A6E
:1034A000CECFFC018091CC029091CD028617970778
:1034B000A0F06115710529F49091E8009E77909332
:1034C000E80090E06115710551F4911108C08091F8
:1034D000E80082FF34C080E00895BC01F2CF809103
:1034E000C5028823C1F18530C1F18091E80083FDD8
:1034F00030C08091E80082FDEACF8091E80080FF33
:10350000E1CF8091F3002091F200382F6115710511
:1035100019F02830310558F091E02830310509F0D4
:1035200090E02091E8002E772093E800CBCF8191A6
:103530008093F100615071092F5F3F4FE7CF809179
:10354000C502882341F0853041F08091E80083FF77
:10355000BECF81E0089582E0089583E00895FC01E4
:103560008091CC029091CD0286179707A0F061154B
:10357000710529F48091E8008E778093E80090E04F
:103580006115710551F4911108C08091E80082FF26
:1035900035C080E00895BC01F2CF8091C502882338
:1035A000C9F18530C9F18091E80083FD31C0809177
:1035B000E80082FDEACF8091E80080FFE1CF8091B2
:1035C000F3002091F200382F6115710519F02830B1
:1035D000310558F091E02830310509F090E08091F4
:1035E000E8008E778093E800CBCF84918093F10040
:1035F0003196615071092F5F3F4FE6CF8091C50230
:10360000882341F0853041F08091E80083FFBDCFF1
:1036100081E0089582E0089583E00895982F97301F
:1036200028F08F708093E90081E008959093E9007D
:10363000242F762F50E0981731F07091EC002091F4
:10364000ED005091F00021FD02C09F5FE8CF309166
:10365000EB003E7F3093EB003091ED003D7F3093E7
:10366000ED003091EB0031603093EB007093EC0093
:103670002093ED005093F0002091EE0027FDE5CF60
:1036800080E008958091C60287FF13C08091E80012
:1036900082FF06C08091E8008B778093E80004C029
:1036A0008091C5028111F2CF08958091C5028823CF
:1036B000D9F38091E80080FFF8CF8091E8008E7701
:1036C000ECCF2091E4003091E50095E6A90120912E
:1036D000EC00822F817020FF06C08091E80080FFFF
:1036E00006C080E008952091E80022FD1AC0809174
:1036F000C502882389F0853089F08091EB0085FD33
:103700000FC02091E4003091E50042175307F9F211
:103710009150E1F684E0089582E0089583E00895F1
:1037200081E008950E94011C0E94091CE0EEF0E077
:10373000808181608083E8EDF0E080818F778083F5
:1037400019BCA7EDB0E08C918E7F8C9380818F7E29
:1037500080831092C40208950F931F93CF93DF9339
:103760000E94011C0E94091CC8EDD0E088818F775F
:10377000888388818068888388818F7D888319BC4D
:103780001092C5021092C1021092C3021092C2029E
:1037900000EE10E0F80180818B7F8083888181605A
:1037A000888342E060E080E00E940E1BE1EEF0E0E2
:1037B00080818E7F8083E2EEF0E080818160808373
:1037C000808188608083F80180818E7F80838881FA
:1037D00080618883DF91CF911F910F910895E8ED6B
:1037E000F0E080818F7E8083E7EDF0E08081816072
:1037F000808384E082BF81E08093C4020E94AC1B7E
:103800000895E8EDF0E080818E7F80831092E200E1
:1038100008951092DA001092E10008951F920F921D
:103820000FB60F9211242F933F934F935F936F9393
:103830007F938F939F93AF93BF93EF93FF93809169
:10384000E10082FF0BC08091E20082FF07C08091FF
:10385000E1008B7F8093E1000E946D1E8091DA0071
:1038600080FF19C08091D80080FF15C08091DA00D8
:103870008E7F8093DA008091D90080FF96C080E12E
:1038800089BD82E189BD09B400FEFDCF81E080934E
:10389000C5020E944E188091E10080FF19C08091FE
:1038A000E20080FF15C08091E2008E7F8093E200ED
:1038B0008091E20080618093E2008091D800806274
:1038C0008093D80019BC85E08093C5020E946218DD
:1038D0008091E10084FF2BC08091E20084FF27C02B
:1038E00080E189BD82E189BD89B5982F917080FF03
:1038F000FBCF8091D8008F7D8093D8008091E1002C
:103900008F7E8093E1008091E2008F7E8093E200C1
:103910008091E20081608093E2008091C10288235F
:1039200009F449C084E08093C5020E946B1880911D
:10393000E10083FF29C08091E20083FF25C08091D0
:10394000E100877F8093E10082E08093C5021092BE
:10395000C1028091E1008E7F8093E1008091E200BE
:103960008E7F8093E2008091E20080618093E2008C
:1039700042E060E080E00E940E1B8091F0008860D1
:103980008093F0000E945F18FF91EF91BF91AF917B
:103990009F918F917F916F915F914F913F912F9167
:1039A0000F900FBE0F901F90189519BC1092C50272
:1039B0000E945C1870CF8091E30087FD93E09093A4
:1039C000C502B3CF1F920F920FB60F9211242F93FF
:1039D0003F934F935F936F937F938F939F93AF9397
:1039E000BF93CF93DF93EF93FF93D091E900DF7004
:1039F0008091EC00C82FC17080FDC0E81092E900F2
:103A00008091F000877F8093F00078940E94261DBB
:103A10001092E9008091F00088608093F000CD2B37
:103A2000CF70C093E900FF91EF91DF91CF91BF91EB
:103A3000AF919F918F917F916F915F914F913F9146
:103A40002F910F900FBE0F901F901895AAE2B0E033
:103A5000ECE2FDE10C94B21E86EC92E02091F100C4
:103A6000FC012193CF01F2E08E3C9F07B9F70E9441
:103A70008B188091E80083FF1EC18091C60290914F
:103A8000C7029A3008F017C1E92FF0E0E357F04E73
:103A90000C949D1E803899F0823809F00CC18091F9
:103AA000CA028F70873008F006C18093E9008091C8
:103AB000EB0085FB882780F91092E90006C0809111
:103AC000C2029091C302911182609091E800977FA9
:103AD0009093E8008093F1001092F1008091E8004B
:103AE0008E77E5C0882309F4D3C0823009F0E3C0A3
:103AF0008091C8028111D6C08091CA028F702FEFC9
:103B0000280F263008F0D7C08093E9002091EB0001
:103B100020FFC8C0933031F48091EB008062809325
:103B2000EB00C0C09091EB0090619093EB0021E01E
:103B300030E001C0220F8A95EAF72093EA00109244
:103B4000EA008091EB008860EACF8111B4C0109147
:103B5000C8021F778091E3008078812B8093E30077
:103B60008091E800877F8093E8000E94421B80914B
:103B7000E80080FFFCCF8091E30080688093E30041
:103B800082E0111183E08093C50295C08058823095
:103B900008F091C08091C8029091C9028C3D23E049
:103BA0009207A1F583E08A838AE289834FB7F8946C
:103BB000DE01139620E03EE051E2E32FF0E0509367
:103BC0005700E49120FF03C0E295EF703F5FEF7074
:103BD0008E2F90E0EA30C0F0C7968D939D932F5FB3
:103BE000243159F74FBF8091E800877F8093E80028
:103BF0006AE270E0CE0101960E94511A8091E800BD
:103C00008B778093E80057C0C096E7CF6091CA02D7
:103C10007091CB02AE014F5F5F4F0E948C19BC01C7
:103C2000892B09F448C09091E800977F9093E800B1
:103C300089819A810E94AF1AE1CF8038E1F58091A5
:103C4000E800877F8093E8008091C1028093F100B3
:103C500045CF811130C09091C802923060F58091BB
:103C6000E800877F8093E8009093C1020E94421B86
:103C70008091C102882311F084E005C08091E300A7
:103C800087FDFACF81E08093C5020E94761813C0A9
:103C90008091C802813079F481E0933009F080E0AE
:103CA0008093C3021092E9008091E800877F80939F
:103CB000E8000E94421B8091E80083FF0AC08091C7
:103CC000E800877F8093E8008091EB00806280931A
:103CD000EB00AA96E3E00C94CE1E0895CF9380915A
:103CE000C5028823A1F0C091E900CF709091EC004B
:103CF000892F817090FD80E8C82B1092E900809197
:103D0000E80083FD0E94261DCF70C093E900CF918B
:103D1000089597FB072E16F4009407D077FD09D07D
:103D20000E94DA1E07FC05D03EF4909581959F4FC6
:103D30000895709561957F4F0895EE0FFF1F0590D0
:103D4000F491E02D09942F923F924F925F926F92DF
:103D50007F928F929F92AF92BF92CF92DF92EF921B
:103D6000FF920F931F93CF93DF93CDB7DEB7CA1B9C
:103D7000DB0B0FB6F894DEBF0FBECDBF09942A88C7
:103D8000398848885F846E847D848C849B84AA846F
:103D9000B984C884DF80EE80FD800C811B81AA81FC
:103DA000B981CE0FD11D0FB6F894DEBF0FBECDBFC7
:103DB000ED010895AA1BBB1B51E107C0AA1FBB1F41
:103DC000A617B70710F0A61BB70B881F991F5A95A7
:103DD000A9F780959095BC01CD010895FB01DC0108
:103DE00004C08D910190801921F441505040C8F7D2
:103DF000881B990B0895FB01DC0102C001900D9214
:103E000041505040D8F70895F999FECF92BD81BD39
:103E1000F89A992780B50895A8E1B0E042E050E013
:103E20000C94481FDC01A40FB51F4150504048F0CE
:103E3000CB01840F951F2E910E94231F41505040AB
:103E4000D0F70895262FF999FECF92BD81BDF89A3B
:103E5000019700B4021639F01FBA20BD0FB6F894CE
:103E6000FA9AF99A0FBE08950396272F0E94231FEE
:103E70000E94221F252F0E94231F242F0C94231FF2
:103E80000196272F0E94231F0C94221FDC01CB01D7
:103E9000FC01F999FECF06C0F2BDE1BDF89A31965A
:103EA00000B40D9241505040B8F70895F894FFCFF8
:103EB00055045504A504A5040A05260584048404B4
:103EC0002B059C05AB05AB051F1493142714F113A8
:103ED000F5132B14F9132F143B1405148C14091427
:103EE0003F140D1443146B14111447147214171457
:103EF0004D145514FD133314011437141B145114AD
:103F000061147B148A14EB1323149A144E15541560
:103F10003D1548155A15601566154A1D721D5B1E24
:0E3F2000721D5B1EA51DC61D5B1E1D1E291EEB
:103F2E002602280850011E0A1401F5172A18231814
:103F3E001C1801E200E900EA00B500B600B700CD9A
:103F4E00008301CC008A01920194012102230224F4
:103F5E00022502260227022A02B300B4006F007067
:103F6E00009F01CB019F02A002818283E200E90043
:103F7E00EA00B500B600B700CD008301CC008A017F
:103F8E009201940121022302240225022602270215
:103F9E002A02B300B4006F0070009F01CB019F0294
:103FAE00A002818283C63435F4F5F6F7313393924D
:063FBE009190946697004B
:00000001FF
