:100000000C9425030C9442030C9442030C94420379
:100010000C9442030C9442030C9442030C9442034C
:100020000C9442030C9442030C946D290C942929DE
:100030000C946A2A0C9442030C9442030C944203DD
:100040000C9442030C9442030C9442030C9442031C
:100050000C9442030C94462A0C9442030C944203E1
:100060000C9442030C9442030C9442030C944203FC
:100070000C9442030C9442030C9442030C944203EC
:100080000C9442030C9442030C9442030C944203DC
:100090000C9442030C9442030C9442030C944203CC
:1000A0000C9442030C9442030C9442030501090290
:1000B000A10185020901A1000509190129081500FE
:1000C0002501950875018102050109300931158165
:1000D000257F95027508810609381581257F9501D0
:1000E00075088106050C0A38021581257F95017572
:1000F000088106C0C005010980A101850319012AF4
:10010000B700150126B700950175108100C0050CD8
:100110000901A101850419012AA002150126A002E6
:10012000950175108100C005010906A1018506052C
:100130000719E029E71500250195087501810205D9
:1001400007190029EF1500250195F07501810205B9
:10015000081901290595057501910295017503910D
:1001600001C00660FF0961A1010962150026FF00B8
:100170009520750881020963150026FF00952075FA
:10018000089102C005010906A101050719E029E748
:1001900015002501950875018102950175088101F9
:1001A0000507190029FF150026FF0095067508812F
:1001B000000508190129059505750191029501753C
:1001C000039101C0FD377A585A000004E6D6B446C0
:1001D0000200210116000000742FE5A3E0022E00AA
:1001E000E85D003D8889C65436C3174FE4E7575091
:1001F000E7979AD8AB6BF9268495E1235FCA4F8BBA
:10020000A7F56BEFC2A4D6FACBAFFB9B2386EFF129
:10021000F3A4208EBC0C3E390B89AD595C23F6FA51
:10022000A9CCF2A1D80D08EF41819B11E8B112FED3
:1002300085DFCE71C2A887F839F139B949804D1CE4
:10024000E8D4CF5AEBB620E6255896D80F756E68DD
:10025000DAAA1B399EC869208699631C9564ADBED5
:100260007C303075AD2992493EFDCA56EECA85F202
:100270005A6DB4B0B110913BD7A07841D3510296DA
:10028000E45C39E284E5FAE4900A4800178F3230E2
:1002900076F4723470DF2CA18FCBD6CD9B4BB1702E
:1002A000F4285C34A683F6B3FBF613BAF41F9FB1AF
:1002B000DE3262836966289C37D12885D60795E7A8
:1002C000A5D4FCBC7810858F0A9728006C2035DBFC
:1002D0002FCC029200018402AF040000FC70B52E06
:1002E000B1C467FB020000000004595A010001007C
:1002F000D003D60EBB0E000002000200CC03D60EC7
:10030000BB0E000003000100D103D60EBB0E00009F
:1003100004000200B603D60EBB0ED3060500010092
:10032000D203D60EBB0E000006000200B803D60EA4
:10033000BB0E000007000200CE03D60EBB0E00006D
:1003400008000100D303D60EBB0E00000900020016
:10035000BA03D60EBB0EAE060A000200BC03D60ED0
:10036000BB0EAE060B000200BE03D60EBB0EAE06E1
:100370000C000200C003D60EBB0EAE060D0002003C
:10038000C203D60EBB0EAE060E000200C403D60E8C
:10039000BB0EAE060F000200C603D60EBB0EAE06A5
:1003A00010000200C803D60EBB0EAE0611000200FC
:1003B000CA03D60EBB0EAE0612000200D403D60E40
:1003C000BB0E000013000200D603D60EBB0E0000C9
:1003D00014000100D803D60EBB0E0000150000006B
:1003E000000034062F15000029001E001F00200009
:1003F00021002200230024002500260027002D00D4
:100400002E0005002A0006002B0014001A00080028
:10041000150017001C0018000C00120013002F001C
:1004200030003100E00004001600070009000A0057
:100430000B000D000E000F003300340031002800C7
:10044000E10064001D001B000600190005001100FA
:100450001000360037003800E5000400E300E20039
:100460002C00E600215235023A003B003C003D00E2
:100470003E003F0040004100420043004300440072
:100480000100010001000100010052000100010013
:100490000100010001000100010001000100010054
:1004A00001000100500051004F0001000100010057
:1004B0000100010001000100010001000100010034
:1004C0000100010001000100010001000100010024
:1004D0000100010001000100010001000100010014
:1004E0000100010009025B00030100A0FA090400F9
:1004F0000001030101000921110100012240000750
:10050000058103080001090401000203000000093D
:1005100021110100012222000705820320000107AA
:100520000503032000010904020001030000000983
:10053000211101000122B6000705840320000112E9
:100540000100020000000852465855010001020354
:10055000011C037600690061006C003A00660036F9
:100560000034006300320062003300630000000EBC
:100570000375006E0069007800360030000000143A
:100580000346005200340042006F006100720064B4
:1005900000730000000403090400000000000000D4
:1005A000000000000000000000000000000000004B
:1005B000000000000000000000000000007E0F00AE
:1005C000D4FFFFFFC700000078000000000000001B
:1005D000002A2B280000000000000000000000009E
:1005E0000000000029000000002C1E3420212224DD
:1005F000342627252E362D3738271E1F202122236B
:100600002425263333362E37381F040506070809FC
:100610000A0B0C0D0E0F10111213141516171819C2
:100620001A1B1C1D2F3130232D3504050607080920
:100630000A0B0C0D0E0F10111213141516171819A2
:100640001A1B1C1D2F3130354C0011241FBECFEF5B
:10065000DAE0DEBFCDBF11E0A0E0B1E0EAE8F7E606
:1006600002C005900D92A637B107D9F725E0A6E79D
:10067000B1E001C01D92AF32B207E1F70E94912AAA
:100680000C946F330C940000482F20912D0590910D
:10069000E40459E0291302C080E0089530E0529F3D
:1006A000F001539FF00D1124EB51FB4F8181681332
:1006B00006C08081481303C085818111EECF2F5F72
:1006C0003F4F2770E7CFE8EDF0E080818E7F808399
:1006D0001092E2001092DA001092E100A0EEB0E079
:1006E0008C9181608C9380818F77808319BCA7ED7A
:1006F000B0E08C918E7F8C9380818F7E808310926E
:10070000B50408952091E4003091E50095E6A90133
:100710002091EC00822F817020FF06C08091E800BC
:1007200080FF06C080E008952091E80022FD1AC0F5
:100730008091DA04882389F0853089F08091EB007C
:1007400085FD0FC02091E4003091E500421753076A
:10075000F9F29150E1F684E0089582E0089583E093
:10076000089581E008958091DC0487FF13C0809193
:10077000E80082FF06C08091E8008B778093E80054
:1007800004C08091DA048111F2CF08958091DA04D7
:100790008823D9F38091E80080FFF8CF8091E800AA
:1007A0008E77ECCF982F9093E900242F762F50E08E
:1007B000891731F07091EC002091ED005091F0001C
:1007C00021FD07C09F5F973071F78093E90081E0BA
:1007D00008953091EB003E7F3093EB003091ED00B7
:1007E0003D7F3093ED003091EB0031603093EB00B2
:1007F0007093EC002093ED005093F0002091EE00F8
:1008000027FDE0CF80E00895B0E0A0E0EAE0F4E06A
:100810000C94B232C8EDD0E088818F7E8883E7EDFA
:10082000F0E080818160808384E082BF81E08093FA
:10083000B50488818E7F888302EE10E0F801108273
:100840001092DA0081EEC82ED12CF6011082888138
:100850008F77888388818068888388818F7D88836B
:1008600019BC1092DA041092DB041092D904109291
:10087000D80490EEE92EF12CF70180818B7F8083E4
:1008800088818160888342E060E080E00E94D2033A
:10089000F60180818E7F8083F80180818160808372
:1008A000808188608083F70180818E7F808388814A
:1008B00080618883CDB7DEB7E8E00C94CE32FC01CE
:1008C0008091E2049091E30486179707A0F06115E8
:1008D000710529F49091E8009E779093E80090E0EC
:1008E0006115710551F4911108C08091E80082FFF3
:1008F00034C080E00895BC01F2CF8091DA048823EF
:10090000C1F18530C1F18091E80083FD30C0809154
:10091000E80082FDEACF8091E80080FFE1CF80917E
:10092000F3002091F200382F6115710519F028307D
:10093000310558F091E02830310509F090E0209120
:10094000E8002E772093E800CBCF81918093F100CF
:10095000615071092F5F3F4FE7CF8091DA04882300
:1009600041F0853041F08091E80083FFBECF81E007
:10097000089582E0089583E008958091B704089572
:1009800087E797E7909301088093000888E19AE051
:100990000FB6F894A895809360000FBE9093600006
:1009A000FFCF9C014FB7F8948091AF049091B004B1
:1009B000A091B104B091B2044FBF821B930B089574
:1009C0002FB7F8946091AF047091B0048091B10496
:1009D0009091B2042FBF08952FB7F8948091AF047F
:1009E0009091B004A091B104B091B2042FBF0895CA
:1009F000209115012223C1F02091B30427FF14C0D8
:100A0000E62FE695E695E695EE31F8F4E80FF92F36
:100A1000F11D677021E030E001C0220F6A95EAF70E
:100A20008281822B82830895FC0132962FEF30E081
:100A30004191641751F02F3F19F4411101C0232F48
:100A40003F5F3630A9F72F3F09F40895820F911DBB
:100A500027FD9A95FC0162830895A3E0B0E0E3E3EB
:100A6000F5E00C94B8322091AC043091AD04281715
:100A70003907A1F09093AD048093AC04E091AA04EF
:100A8000F091AB04309751F024E029839B838A8353
:100A90000680F781E02DCE01019609952396E2E0CC
:100AA0000C94D432A3E0B0E0E8E5F5E00C94B83261
:100AB0002091A8043091A90428173907A1F0909338
:100AC000A9048093A804E091AA04F091AB043097A4
:100AD00051F023E029839B838A830680F781E02DF0
:100AE000CE01019609952396E2E00C94D432E09170
:100AF000AA04F091AB04309729F00190F081E02D29
:100B00000995089580E00895CF93DF93EC0140911B
:100B100098045091990460919A0470919B042FB7A6
:100B2000F8948091AF049091B004A091B104B09179
:100B3000B2042FBF841B950BA60BB70B843F9140CB
:100B4000A105B10518F58091980490919904A091A0
:100B50009A04B0919B048093940490939504A0937D
:100B60009604B093970484EF91E0A0E0B0E0809306
:100B7000900490939104A0939204B0939304D09323
:100B8000A004C0939F04DF91CF9108950E94E004D8
:100B900060939404709395048093960490939704C3
:100BA00082E390E0A0E0B0E0E2CFFC018481862304
:100BB00051F492819923B9F06923808583FF05C0A0
:100BC00081E061110FC080E00895892F8F709295A8
:100BD0009F70982B862F8F7062956F70682B81E0C5
:100BE0009613F1CF089581E0FDCFDC0160918A0476
:100BF00080918B04962F891301C00895292F30E02E
:100C0000F901EE0FFF1FEE57FB4F408151814A174C
:100C10005B07A1F487E08A9FA0018B9F500D1124F0
:100C20004F515C4F81E0FA0184839613E6CF2F5F2A
:100C30003F4F2370332720938A0408952F5F3F4F3F
:100C4000922F9370D8CF1092DF031092DE03E1EE63
:100C5000F3E08581811102C014821682379684E008
:100C6000E931F807B1F70895B0E0A0E0EAE3F6E073
:100C70000C94B0328FEF9FEF4430510508F469C0F7
:100C80004091B30441FB882780F990E0880F991FB9
:100C900042FB002700F910E0000F111F000F111F89
:100CA000802B912B40FBCC24C0F8D12C8C299D2982
:100CB00043FB222720F9C22FE0E0DE2F53E0CC0FC8
:100CC000DD1F5A95E1F78C2B9D2B44FBAA27A0F939
:100CD000B0E0E4E0AA0FBB1FEA95E1F78A2B9B2B5B
:100CE00045FBEE27E0F9F0E0A5E0EE0FFF1FAA9527
:100CF000E1F78E2B9F2B46FB222720F930E0B6E050
:100D0000220F331FBA95E1F7822B932B47FB222743
:100D100020F930E03695322F222737952795822B00
:100D2000932B2091B404322F3170F32EE82EF92A40
:100D300026952170B22EBB0CA82EBF28C501BB0C76
:100D4000AA0BBB0BFB0180839183A283B38390E04A
:100D500080E0CDB7DEB7EAE00C94CC32E6EBF3E00E
:100D6000848195812AE030E0B9010E94733260935A
:100D70001001868180930F01828580930E01848506
:100D800080930D0186859785B9010E947332609327
:100D90000C01808980930B01828980930A018489E8
:100DA0008093090108958091B6039091B7039093C1
:100DB0001201809311010895EAE4F2E090E080E0EE
:100DC0006AE678E241E958E220EE37E2778366830B
:100DD00051874087338722879587848701963E967F
:100DE0008830910599F7089581152CE7920741F411
:100DF00020918E0430918F04232B11F490E080E039
:100E000008950E94EC049C0190913202809133027B
:100E1000982B21F030932F0220932E0290913402D0
:100E200080913502982B21F030932D0220932C02D3
:100E3000E091AA04F091AB04309749F082E08093EE
:100E400030020480F581E02D80E392E00995089559
:100E500080912B0280FF0CC060910A0170E07595B3
:100E60006795759567956115710549F1862F089508
:100E700081FF06C060910A0170E075956795F3CF18
:100E800060910A0182FD0BC090912A029923A1F082
:100E90006091090180910A01961738F0682F70E07F
:100EA0006038710500F38FE70895899FC001112410
:100EB00070E00E948732F4CF61E070E0D7CF81E02C
:100EC000089580912B026091BE037091BF0380FF53
:100ED00016C020910E01269FC001279F900D11245E
:100EE000BC0176956795769567956038710508F031
:100EF00043C06115710509F441C0862F089581FF33
:100F00000BC020910E01269FC001279F900D112438
:100F1000BC0176956795E9CF82FF09C080910E01EB
:100F20009B01829FB001839F700D1124DECF209121
:100F300029022223D1F290910D0180910E01482FB8
:100F400050E0291748F0CB01849FB001859F700DB8
:100F5000949F700D1124C9CF289F90011124269FC2
:100F6000A001279F500D369F500D1124692F70E06E
:100F7000CA010E947332B9CF8FE7089581E00895C6
:100F800080E00895F894E82FE295EF70F0E031A149
:100F9000282F2F7081E090E001C0880F2A95EAF792
:100FA000982F9095932391A392A1892B82A3789453
:100FB00008959091B30492FF06C0282F287128301D
:100FC000F9F4877F846093FF06C0282F28712831A9
:100FD000F1F4877E84612091B40420FF06C0382F8D
:100FE00038713830D9F4877F816021FF06C0282FFF
:100FF00028712831D1F4877E816194FD877E089520
:10100000282F24712430F9F68B7F8860DCCF282FBD
:101010002471243101F78B7E8861DDCF382F317147
:10102000313019F78E7F8860E0CF282F2171213170
:1010300021F78E7E8861E1CF82389105B9F1B0F455
:101040008133910509F47DC048F48932910509F492
:101050006DC08A32910509F47BC0089585339105EE
:1010600009F45FC08933910509F10895833E910524
:10107000D9F138F4803E910529F1823E910579F14C
:101080000895863E9105D9F1873E910509F43EC049
:10109000843E910541F52091B40421FF24C0809144
:1010A000B30484FD19C087EE90E008952091B30445
:1010B000237009F05AC02091B40423FF14C089E2C0
:1010C00090E008952091B30420FD38C03091B4041D
:1010D00030FF09C024FF43C090E080E008952091D4
:1010E000B30422FDF7CF08952091B30422FD3AC046
:1010F0003091B40430FD39C024FFF5CFEDCF2091FD
:10110000B30423FFF0CF24FDE7CFCDCF2091B3046C
:1011100023FD2EC03091B40431FFEECF84EE90E079
:1011200008952091B30425FFDECFC9CF2091B304E9
:1011300025FD21C02091B40423FFD5CF89E390E0A1
:10114000D2CF2091B30426FFCECF8AE290E008955B
:101150002091B30426FFC7CF81E390E0089583EE8A
:1011600090E0089582EE90E0089580EE90E008957A
:1011700086EE90E0089585E390E008951F93CF9365
:10118000DF930E941C08EC01C11580E5D807F0F53B
:10119000C11580E4D80708F09CC0C03ED10520F5F9
:1011A000CD3CD10508F082C0C83AD10578F4C53AE3
:1011B000D10508F073C0C130D10519F1209709F1AC
:1011C000C430D105F0F4D0E0C0E01BC0C33CD10571
:1011D000D0F7C85AD0E0CC0FDD1FCF5DDE4F0990AD
:1011E000D881C02DD4640DC0C11580E2D80708F0A5
:1011F000D1C0C11581E0D80708F05AC0C83ED1055A
:1012000010F7CE01DF91CF911F910895C03682E58E
:10121000D80718F5C03482E5D80708F06BC0C03293
:1012200082E5D80708F05FC0C11582E5D80708F449
:1012300097C02C2F2695269580E2289F9001112497
:101240008C2F8370C1E0D0E002C0CC0FDD1F8A95E7
:10125000E2F7C22BD32BDD68D4CFC03A82E5D807A2
:1012600060F4C03882E5D80708F459C0CF71D0E0E7
:10127000DC2FCC27C46FD06AC4CFC03C82E5D8072E
:1012800008F462C0C03E82E5D80708F09CCFDC2F8E
:10129000CC27CC27DF71C06FD06AB3CFC55AD0E05E
:1012A000C25EDE4FC881D0E0D064ABCFD065A9CF9D
:1012B0008D2F0E94D907182FCE0199270E941C0854
:1012C000C12FD0E0DC2FCC27CC27DF71C82BD92B46
:1012D00098CFCE0199270E941C08CC27DF70C82B1D
:1012E000D92BD06A8ECFCF71D0E0DC2FCC27C16F45
:1012F000D06A87CF2C2F26952695277080E2289FCD
:10130000900111248C2F8370C1E0D0E002C0CC0F7B
:10131000DD1F8A95E2F7C22BD32BDC6872CF2C2F0E
:1013200026952695277080E2289F900111248C2F06
:101330008370C1E0D0E002C0CC0FDD1F8A95E2F7D8
:10134000C22BD32BDA685DCF8C2F8F710E94D90707
:10135000C82FD0E0DC2FCC27CC27DF71D06251CF53
:101360008C2F8F710E94D90755E0D695C7955A9555
:10137000E1F7CF70D0E0DC2FCC27282F30E084FFBE
:1013800005C044E0220F331F4A95E1F7C22BD32B4F
:10139000D06937CF8D2F8F710E94D907182FCE01BA
:1013A00099270E941C08C12FD0E0DC2FCC27CC2726
:1013B000DF71C82BD92BD2CF8091E401882331F083
:1013C0001092E4011092E3011092E2010895CF938C
:1013D000C82F8091B40482FF0CC08091E4018C1767
:1013E00041F00E94EC049093E3018093E201C093EA
:1013F000E401CF9108959091E401292F282361F011
:10140000809589238093E401882339F00E94EC04BD
:101410009093E3018093E201089590E080E0F8CF9B
:10142000809590912E05982390932E050895809590
:101430009091950398239093950308959091950327
:10144000892B8093950308951092C1011092C001D9
:101450001092BF0108958091B8039091B903892B30
:1014600089F00E94EC042091E2013091E301AC018B
:10147000421B530B81E02091B8033091B90342170E
:10148000530708F480E0817008959091BE01292FE0
:10149000282321F0809589238093BE01089590919F
:1014A00015019923D1F09091B30497FF16C0E82F4E
:1014B000E695E695E695EE31E0F4F0E0E858FE4F6B
:1014C000282F277081E090E001C0880F2A95EAF765
:1014D00080959281892382830895EAE7F1E09191D2
:1014E000891303C0DF0111971C9291E0E038F907DE
:1014F000B1F7089580912D059091E404981301C0EF
:1015000008958F5F8770FACF292F973078F589304B
:1015100068F590E039E0239F800D911D1124682F1C
:10152000677023E0969587952A95E1F7FC01EE0F09
:10153000FF1FE80FF91FE356FE4F50E040E080E048
:10154000219130E0062E02C0369527950A94E2F7E5
:1015500021703327042E01C0220F0A94EAF7822B50
:101560004F5F5F4F4330510559F7089580E008956C
:10157000292F973098F5893088F590E039E0239F3E
:10158000800D911D1124282F277041E001C0440FC8
:101590002A95EAF723E0969587952A95E1F7FC01CD
:1015A000EE0FFF1FE80FF91FE356FE4F30E020E07B
:1015B00070E05191DF011197CB01022E02C0969588
:1015C00087950A94E2F78170819585278423852782
:1015D0008C932F5F3F4F2330310559F70895809347
:1015E000F90108959091F90121E030E0F90101C07D
:1015F000EE0F8A95EAF7D90102C0AA0FBB1F6A95C0
:10160000E2F7EA2B01C0220F4A95EAF7892F8E23D1
:10161000E81305C0292B822F0E94EF0A0895209518
:101620002923F9CF21E030E001C0220F8A95EAF7A3
:1016300020958091F90182230E94EF0A08959091EC
:10164000C101809589238093C101282F277069F4F7
:10165000891759F09091B40492FF07C0869586953A
:1016600086950E94120B0E94240A089521E030E022
:1016700001C0220F8A95EAF78091F901822B0E941E
:10168000EF0A08959091B40492FF10C098E0899FEA
:1016900090011124622B6093C1010E94360B0E94BD
:1016A000EC049093C0018093BF0108950E94360B13
:1016B00008958093F801089592959F70963091F067
:1016C00058F4925F9F70923058F4803F19F030F4D4
:1016D000883E30F481E008959A5FF4CF843FD1F3DF
:1016E00080E00895883EB0F3813FD1F7F3CF6623C1
:1016F00009F45DC08D3C41F40E946107819580939F
:1017000033020E94010708958E3C19F40E9461077C
:10171000F6CF8F3C31F40E946107819580933202AD
:10172000F0CF803D19F40E946107F8CF893D29F47C
:101730000E94280780933402E4CF8A3D21F40E945E
:1017400028078195F7CF8B3D31F40E9428078195BA
:1017500080933502D6CF8C3D19F40E942807F8CF2C
:101760009FE2980F983070F4815D990B21E030E092
:1017700001C0220F8A95EAF780913102822B809373
:101780003102BFCF8D3D31F480912B028160809377
:101790002B02B7CF8E3D21F480912B028260F7CFD0
:1017A0008F3D09F0AECF80912B028460F0CF409145
:1017B00032028D3C59F48091330287FF0DC01092A4
:1017C000330241110BC01092290208C08E3C81F4F3
:1017D0008091330218169CF3442381F080913402E7
:1017E00090913502892B09F08CCF10922A0289CF73
:1017F0008F3C49F447FFF0CF1092320280913302C0
:101800008111ECCFE0CF803D19F41416ACF3E4CF96
:1018100090913402893D29F41916F4F6109234029D
:10182000DBCF8A3D19F497FFD7CFF8CF90913502DF
:101830008B3D29F497FFD0CF10923502CDCF8C3D50
:1018400019F41916CCF3C8CF9FE2980F983090F492
:10185000815D990B21E030E0B90102C0660F771F6E
:101860008A95E2F7CB01809590913102892380938C
:101870003102B2CF8D3D31F480912B028E7F809367
:101880002B02AACF8E3D21F480912B028D7FF7CFC2
:101890008F3D09F0A1CF80912B028B7FF0CF9C016F
:1018A0003A9521153F4150F5FC01EE27F170BC013E
:1018B00066277270AC01442754709C01222738704F
:1018C00094FF0EC080E1EF2B09F480E0672B09F054
:1018D0008062452B09F08064232B89F0806808958D
:1018E00081E0EF2B09F480E0672B09F08260452B43
:1018F00009F08460232B19F08860089580E0089532
:101900000F931F93CF93DF938B01EA019091DA0439
:10191000943061F58093E9008FEF9091E800815059
:1019200095FD06C095ED9A95F1F700008111F5CF70
:101930008091E80085FF1AC00E948203811111C0C6
:101940008091E80085FD06C08091E8008E77809345
:10195000E800F2CFF80181918F018093F100219787
:1019600079F78091E8008E778093E800DF91CF913E
:101970001F910F91089543E050E0BC0184E00E9464
:10198000800C089546E050E0BC0184E00E94800C89
:101990000895CF93DF93EC0180911501811111C05F
:1019A00048E050E0BE0181E00E94800C80E2FE0130
:1019B000A8EBB4E001900D928A95E1F7DF91CF9109
:1019C00008958091B30487FF05C040E284E050E0B1
:1019D000BE01EACF48E081E0FACF019708F408950C
:1019E000EFE9FFE03197F1F700C00000F6CFCF93A9
:1019F000DF93C5E3D3E060E0CE010E94333321964C
:101A0000C11584E0D807B9F7DF91CF9108951F93EE
:101A1000CF93DF93122F8430E0F46730D0F4493055
:101A2000C0F4C42FD0E0CC0FDD1F92E1699FC00D40
:101A3000D11D11249EE7899FC00DD11D1124632F54
:101A4000CE0189960E943333612FCE018A960E947F
:101A50003333DF91CF911F910895CF93C82F6FEF4C
:101A600081116AEE85E290E00E9433336FEFC1117D
:101A700063E186E290E00E9433336FEFC11168E3C7
:101A800087E290E00E943333CF9108959B01883024
:101A900070F49AE0899FB00111246B5B7D4F4AE09E
:101AA00050E0C9010E94053390E080E008958FEF77
:101AB0009FEF0895AAE0B0E0E0E6FDE00C94B832B4
:101AC0009C0137552F3F310509F068F4BE016F5F67
:101AD0007F4F0E94460D892B31F489859A852A967D
:101AE000E2E00C94D4328091CE039091CF03F7CFF3
:101AF0000F931F93CF93DF93843030F5673020F539
:101B0000493010F5C42FD0E0CC0FDD1F22E1629FD9
:101B1000C00DD11D11243EE7839FC00DD11D11249E
:101B2000CE0189960E941533082F10E0102F002750
:101B3000CE018A960E9415339801282BC901DF91A6
:101B4000CF911F910F91089590E080E0F8CF462F3C
:101B50002091270230912802232B99F4703F39F409
:101B6000603F79F480913602909137020895773082
:101B700040F4693030F4843020F4672F0E94780DEF
:101B8000089590E080E00895CF92DF92FF920F9346
:101B90001F93CF93DF936C010091F9018091F801BD
:101BA000082BC3E0D0E010E0FC2EC8010C2E02C0D0
:101BB000959587950A94E2F780FD0CC02197A0F7D0
:101BC000F12C8F2DDF91CF911F910F91FF90DF901E
:101BD000CF900895B6018C2F0E94A70D0E94BE08D9
:101BE000019761F3EECFCF93DF93EC010E94C40D18
:101BF000BE010E94A70D0E94BE08DF91CF910895FB
:101C0000FC018481882371F087819085009729F0F9
:101C10000E94BE080E945C0B0895808191810E9401
:101C2000F30DF8CF80E00895A6E0B0E0EAE1FEE031
:101C30000C94B73249835A8349815A819923A1F080
:101C4000222391F0CA010E94C40D182F682F8981A8
:101C50009A810E94B80A69817A81812F0E94A70D1A
:101C60002696E3E00C94D332CA010E94840A182F0E
:101C7000F2CFFC01262F87819085009741F44081A7
:101C8000518162817381848195810E94140E08952F
:101C90000F931F93CF93DF9306EB13E0C1E2D2E0E3
:101CA000CE010E941533F80161918F01681719F078
:101CB000CE010E9433332196C534F2E0DF0781F76D
:101CC000DF91CF911F910F9108950F931F93CF93A1
:101CD000DF9306EB13E0C1E2D2E0CE010E941533A0
:101CE000F80181938F012196C534F2E0DF07A9F74F
:101CF000C6EFD2E0FE0185919491009711F0FC01AE
:101D000009952C96F3E0C23FDF07A1F7DF91CF9151
:101D10001F910F91089585E290E00E9415338A3E4D
:101D200089F486E290E00E941533833159F487E20A
:101D300090E00E94153391E0883309F090E0892FFC
:101D40008170089580E0FCCF9091B40492FB22272B
:101D500020F9281779F080FB92F99093B4046091F0
:101D6000B3047091B40484E090E00E94513382E0A7
:101D70000E941F0B0895DA019C012E5F3F4FF9016D
:101D800045915491F90125913491A217B30758F068
:101D9000FC013496859194910E94F5320E94480E80
:101DA00090E080E008958FEF9FEF0895DB01FC0144
:101DB0003296259134914217530758F0FC0134961E
:101DC00065917491A901CD010E94F53290E080E007
:101DD00008958FEF9FEF0895AAE0B0E0E2EFFEE0F4
:101DE0000C94AE320DE113E08BE0C82E83E0D82EC8
:101DF00095EEE92E92E0F92E27E0922E3AE0A32EFE
:101E000033E0B32E88248394D6010D931D936D0186
:101E10004AE050E0B701CE0101960E940533F80177
:101E20003896DF01892D1D928A95E9F789819A817B
:101E3000D80111969C938E938F8112968C93129752
:101E40008D8113968C931397888514968C93149791
:101E5000898515968C9315978B819C8117969C93F9
:101E60008E93169718961C9218978A8587FF3CC008
:101E70001E961C921E921D9780FF03C0D8011896D3
:101E80008C9281FF04C0F80190859260908782FF58
:101E900007C0D80118969C911897946018969C9347
:101EA00083FF04C0F80190859860908784FF07C085
:101EB000D80118969C911897906118969C9385FF6D
:101EC00004C0F801808580628087015F1F4FFAE0BF
:101ED000EF0EF11C85E3E81683E0F80609F094CFD5
:101EE0002A96ECE00C94CA32F801B686A586C4CFD7
:101EF000AAE0B0E0EEE7FFE00C94B232EAEBF2E0E9
:101F000080E5DF011D928A95E9F7E1EEF3E088E3D1
:101F1000DF011D928A95E9F78AEBC82E82E0D82E60
:101F20007F0105E912E0F701D182C0824AE050E06A
:101F3000B801CE0101960E94053388E0FE0131967A
:101F4000D60101900D928A95E1F789859A85D7018E
:101F500013969C938E931297BAE0CB0ED11CE7E0B8
:101F6000EE0EF11C065F1F4F053EF2E01F07D9F68B
:101F70002A96E8E00C94CE32AEE0B0E0E2ECFFE06E
:101F80000C94AE328E010F5F1F4F8EE0F80111925C
:101F90008A95E9F797E5E92E91E0F92E6801AA24E0
:101FA000A394B12CF70181917F018F3F09F446C0C2
:101FB000F894E82FE295EF70F0E021A18F70A50171
:101FC00002C0440F551F8A95E2F7CA01922F982B41
:101FD00091A392A18095892382A3789400C0EEE515
:101FE000F1E021E030E0912C812C41914F3F09F448
:101FF00067C0A42FA295AF70B0E090968C9190E04E
:102000004F7002C0959587954A95E2F780FD58C0BC
:10201000C901882A992A220F331F51E0E736F507B4
:1020200021F7F701319780818F3F11F00E94C2079D
:1020300080EA8A95F1F7F60191828082F2E0CF0E74
:10204000D11C4EE5E41641E0F40609F0ABCF4EE0BA
:1020500050E0B8018AEE91E00E94E832892B99F1B4
:102060008EE0F801AAEEB1E001900D928A95E1F7B9
:1020700081E08093E9010E94EC049093E801809351
:10208000E7018091E7019091E8010E94D104059752
:10209000F0F04EE050E06AEE71E089E192E00E94DB
:1020A000E832892BC9F08EE0EAEEF1E0A9E1B2E076
:1020B00001900D928A95E1F781E01092E90108C044
:1020C00090E080E0A6CF8091E9018111DACF80E035
:1020D0002E96ECE00C94CA3280E0EFCFCF93809143
:1020E000950390912E05892B809378018091E401CE
:1020F000882329F18091B8039091B903892B29F0A5
:102100000E942B0A81110E94DC0980917801909134
:10211000E401892B8093780180911501882309F4CB
:1021200047C08091B30487FF43C08EE1EAE7F1E046
:1021300090E0815008F03EC091110E94DC09C091EE
:102140009C04C09580917801C82380919D04C82B80
:10215000C093780140E250E062EC71E088E791E0E2
:102160000E94E832892B11F180E2E8E7F1E0A2EC6D
:10217000B1E001900D928A95E1F7E091AA04F09107
:10218000AB04309799F080911501882349F0809134
:10219000B30487FF05C0C093790186E0809378017E
:1021A0000280F381E02D88E791E00995CF910895B1
:1021B00086E0BCCF2191222309F4BBCF9F5FB9CF2A
:1021C000CF93DF93EC01EA85FB85309719F06C859E
:1021D0007D8509958B810E94100A8C810E94170AC7
:1021E0000E946E1086E0FE0111928A95E9F7DF9158
:1021F000CF910895CF93DF93EC018D8181FD15C0C0
:1022000082608D8380912E059B81892B80932E0582
:102210008C810E941E0A0E946E10E885F985309715
:1022200021F06C857D85CE0109951092A70410924E
:10223000A6048D8180FD03C0CE010E94E010DF91D5
:10224000CF91089580911301877F8093130182E0DD
:102250000E94100A8091130184FF06C08F7E809334
:10226000130182E00E941E0A8091130185FF06C0BF
:102270008F7D8093130180E20E941E0A0E946E10DF
:1022800008951092950380911501EAE7F1E0882303
:1022900029F18091B30487FF21C08EE1DF011D92F7
:1022A0008A95E9F790E080E00E94520590E080E096
:1022B0000E942D0510922E050E946E1086E0E0E32C
:1022C000F2E0DF011D928A95E9F71092290210923F
:1022D0002A0210922B020E940107089586E0DECFA9
:1022E000AAE2B0E0E6E7F1E10C94B7328CED94E0BD
:1022F0002091F100DC012D93CD01B4E0843E9B07D9
:10230000B9F78091DD04833009F472C0B8F48130EC
:1023100009F449C0823009F4B3C08091E80083FF1A
:1023200096C28091DC049091DD049A3008F08FC24F
:10233000E92FF0E0EF58FC4C0C949B328A3009F402
:102340008EC08B3009F471C0893039F78091DC047C
:10235000813219F78091E0049091E104009711F027
:102360000297D9F68091E800877F8093E8008091FA
:10237000E80082FF38C09091F3008091F20002974C
:1023800031F48091F100813011F0863021F4809198
:10239000F1008093B7048091E8008B778093E80088
:1023A0000E94B303BACF8091DC04813A09F0B5CF23
:1023B0008091E800877F8093E8008091E00490910D
:1023C000E104892B61F460E288EB94E070E00E9404
:1023D0005F048091E8008B778093E8009ECF60E0F7
:1023E00090E080E0F3CF8091DA048111C0CF95CFE7
:1023F0008091DC04813A09F090CF8091E0049091C3
:10240000E104892B09F089CF8091E800877F8093D0
:10241000E8008091E80080FFFCCF80911501809357
:10242000F1008091E8008E77B9CF8091DC04813291
:1024300009F073CF8091E0049091E104892B09F0B9
:102440006CCF8091E800877F8093E8000E94B303FF
:102450008091DE04809315010E9441115ECF80912E
:10246000DC04813209F059CF8091E800877F8093A6
:10247000E8000E94B3038091DF048093B6044DCF3F
:102480008091DC04813A09F048CF8091E800877F91
:102490008093E8008091E80080FFFCCF8091B60433
:1024A000BECF803899F0823809F0D1C18091E00424
:1024B0008F70873008F0CBC18093E9008091EB00EA
:1024C00085FB882780F91092E90006C08091D80426
:1024D0009091D904911182609091E800977F909338
:1024E000E8008093F1001092F1008091E8008E776F
:1024F000AAC1882309F498C1823009F0A8C180914B
:10250000DE0481119BC18091E0048F702FEF280FB2
:10251000263008F09CC18093E9002091EB0020FF59
:102520008DC1933031F48091EB0080628093EB0099
:1025300085C19091EB0090619093EB0021E030E039
:1025400001C0220F8A95EAF72093EA001092EA0070
:102550008091EB008860EACF811179C11091DE048F
:102560001F778091E3008078812B8093E300809136
:10257000E800877F8093E8000E94B3038091E80021
:1025800080FFFCCF8091E30080688093E30082E0CD
:10259000111183E08093DA045AC18058823008F028
:1025A00056C12091DE043091DF042C3DE3E03E076C
:1025B000A1F583E08A838AE289834FB7F894DE012C
:1025C000139620E03EE051E2E32FF0E050935700F5
:1025D000E49120FF03C0E295EF703F5FEF708E2F14
:1025E00090E0EA30C0F0C7968D939D932F5F243121
:1025F00059F74FBF8091E800877F8093E8006AE237
:1026000070E0CE0101960E945F048091E8008B7714
:102610008093E8001CC1C096E7CF8091E0049091C0
:10262000E104432F55274330510509F44AC078F59A
:102630004130510509F485C08BE590E0E4EEF4E00B
:102640004230510509F003C12091E800277F209313
:10265000E8002091E2043091E3048217930708F424
:102660009C0140E02115310509F070C041116EC098
:102670008091E80082FDC9CF8091DA04882329F295
:10268000853019F28091E80083FFF2CFBECF41324E
:10269000510509F447C04232510509F0D8C08330D2
:1026A000910508F0D4C0FC01EE0FFF1FE659FE4F64
:1026B0000190F081E02D89599E4FDC018C9190E0D2
:1026C0001DC0332721303105E9F02115310579F09E
:1026D00022303105F9F02330310509F0B8C0E1E5C9
:1026E000F5E0E4918E2F90E0E1E5F5E007C0E5E943
:1026F000F5E0E4918E2F90E0E5E9F5E0009709F42C
:10270000A6C0A2CFEFE7F5E0E4918E2F90E0EFE7CF
:10271000F5E0F4CFEFE6F5E0E4918E2F90E0EFE600
:10272000F5E0ECCF8330910508F091C0880F991F38
:10273000FC01E059FE4F0190F081E02D89E090E02E
:1027400083CF82E190E0EFE3F5E07ECF8091DA0481
:10275000882309F45ACF853009F457CF8091E800D7
:1027600083FD53CF8091E80082FD82CF8091E80005
:1027700080FF78CF9091F3008091F2002115310510
:1027800019F08830910550F041E0089709F040E0D9
:102790008091E8008E778093E80064CF4491409365
:1027A000F1003196215031090196E8CF803809F0C7
:1027B0004EC08091E800877F8093E8008091DB0421
:1027C0008093F10092CE811142C01091DE0412304C
:1027D000F0F58091E800877F8093E8001093DB0498
:1027E0000E94B303112311F084E005C08091E3003F
:1027F00087FDFACF81E08093DA0442E061EC81E06A
:102800000E94D20342E261EC84E00E94D20342E2E1
:1028100061EC82E00E94D20342E260EC83E00E941D
:10282000D2038091DA0413C08091DE04813079F400
:1028300081E0933009F080E08093D9041092E900A0
:102840008091E800877F8093E8000E94B303809125
:10285000E80083FF0AC08091E800877F8093E8004A
:102860008091EB0080628093EB00AA96E3E00C94E9
:10287000D332E6EBF3E0128E138E8FEA90E0918371
:10288000808325E0248F88E893E1938382838AE024
:1028900090E09583848344E150E05783468348E089
:1028A00050E051874087938782876EE170E075879B
:1028B00064879787868780E590E0918B808B538B28
:1028C000428B48E250E0558B448B42E350E0578BFB
:1028D000468B48EC50E0518F408F158E178E168E28
:1028E00091A380A322A30E94480E0E94411110923E
:1028F000B4041092B304E4EBF4E08081846080833C
:102900006091B3047091B40484E090E00E9451336C
:102910000E94650E0895AEE1B0E0E1E9F4E10C94A7
:10292000AC3280908E0490908F0481E090E0909380
:102930008F0480938E0488EEA82E83E0B82E10E0DA
:1029400000E06501F12C1BC021E030E002301105F0
:102950001CF4F301259134914E2D6F2D802F0E9490
:10296000070D82E0680E711CE394E9E0EE12ECCFF3
:10297000F394F2E1CF0ED11C87E0F81619F036017E
:10298000E12CE2CF0F5F1F4FEEE7AE0EB11C04301B
:102990001105B9F60E9439141A8219821C821B8211
:1029A0001E821D8218861F8288EC90E09A87898794
:1029B00005E412E04AE050E0B801CE0101960E9421
:1029C0005733065F1F4F0539F2E01F0799F77E0165
:1029D0008BE0E80EF11C8AE0F70111928A95E9F785
:1029E0004AE050E0B801C7010E945733065F1F4F0D
:1029F000053EF2E01F07A1F77E0185E1E80EF11C1C
:102A00008AE0F70111928A95E9F78FEF9FEF9A8F8D
:102A1000898F87E08E8F4AE050E0B801C7010E949D
:102A20005733065F1F4F0533F3E01F07A1F790925E
:102A30008F0480928E046E96EEE00C94C83280E093
:102A40000E942D0D60E088E290E00E9433330E94E6
:102A50008B140E94F70C81E00E942D0D0895CF92F7
:102A6000DF92EF92FF928FEF9FEF4430510508F411
:102A70006CC0FB01C080D180E280F3800E944111D4
:102A80008091B304C0FA80F9B701A60176956795E5
:102A90005795479540FB81F9B701A60122E076954D
:102AA0006795579547952A95D1F740FB82F9B7016D
:102AB000A60133E076956795579547953A95D1F7F6
:102AC00040FB83F9B701A601E4E076956795579539
:102AD0004795EA95D1F740FB84F9B701A601F5E0E7
:102AE0007695679557954795FA95D1F740FB85F907
:102AF000B701A601A6E07695679557954795AA95E3
:102B0000D1F740FB86F9B701A601B7E07695679546
:102B100057954795BA95D1F740FB87F98093B30451
:102B20008091B404D0FA80F9D1FACC24C0F8C0FA6C
:102B300081F98093B4046091B3047091B40484E08B
:102B400090E00E94513390E080E0FF90EF90DF90A2
:102B5000CF9008950E9441112FEF84E39CE0215013
:102B600080409040E1F700C0000088E19AE00FB695
:102B7000F894A895809360000FBE90936000FFCFFB
:102B8000882321F00E94100A0E946E100895882365
:102B900039F090912E05982B90932E050E946E107F
:102BA0000895882321F00E94170A0E946E1008954C
:102BB000882321F00E941E0A0E946E100895882327
:102BC00081F19CEF980F913A28F40E944F0A0E94DD
:102BD0006E10089590E2980F983050F4877091E04D
:102BE00001C0990F8A95EAF7892F0E94170AEFCF43
:102BF0009BE5980F933028F490E080E00E94520506
:102C0000089598E5980F9B3128F490E080E00E94A9
:102C10002D05089593E3980F933118F460E00E9416
:102C2000770B0895FF920F931F93CF93DF93F82EA6
:102C30000091A1041091A2040115110509F449C0E5
:102C40001092A00410929F0410929C0410929D0474
:102C5000D8011696CD91DC919E013A9521153F4100
:102C600008F4D07ED1E0C11101C0D0E0D80119969E
:102C7000ED91FC911A97309731F01B966D917C91F4
:102C800080E00995D823DD2339F08CEF8C0F813A51
:102C900030F58C2F0E944F0AFF2099F0E091A1049B
:102CA000F091A204808584FD0CC080919E0488234D
:102CB00041F0808191819C01215031092F333E47A1
:102CC000A0F00E946E101092A2041092A104109223
:102CD0009E04C801CDB7DEB7E5E00C94D1320E9466
:102CE0006E108C2F0E94DF15D7CF0E948405E9CF8C
:102CF000CF93DF93EC010E94DF15CE010E944F0CB1
:102D00009E01205E31092830310510F0CD2B29F4C9
:102D10000E94D115DF91CF9108950E94C015FACF7E
:102D2000CF93C82F8823C1F18CEF8C0F813AB0F577
:102D300080911501882301F18091B30487FF1CC0A5
:102D4000EC2FE695E695E695F0E0E858FE4F828197
:102D500090E04C2F477021E030E002C0220F331F7B
:102D60004A95E2F782239323892B79F08C2F0E94D6
:102D70004F0A0E946E1009C0EAE7F1E08191C8177E
:102D8000A9F381E0E038F807C9F76C2F88E791E0F4
:102D90000E94F8040E946E10CF91089580E28C0F7B
:102DA000883048F4C77081E001C0880FCA95EAF7FF
:102DB0000E941E0AEFCFEBE5EC0FE33040F4F0E0A9
:102DC000E25EFE4F808190E00E945205E5CFE8E58B
:102DD000EC0FEB3150F4F0E0EE0FFF1FEF5DFE4F14
:102DE000808191810E942D05D7CF83E38C0F8331A1
:102DF00098F661E08C2F0E94770BCECF1F93CF9374
:102E0000DF93182FC091D603D091D703893321F0D7
:102E1000C091D403D091D503812F0E9490162097A2
:102E200039F4812F0E94DF15DF91CF911F91089512
:102E30008FE99FE00197F1F700C000002197EFCFE5
:102E4000B0E0A0E0E6E2F7E10C94B032EC018AE0F9
:102E5000A82E2881222309F48FC02130C9F5998139
:102E60008A81913021F422960E94FE1605C092308C
:102E700029F422960E9490162196EBCF933021F4EC
:102E800022960E94DF15F8CF943011F02196F4CFEE
:102E9000229630E020E0AE014F5F5F4F8053990BE8
:102EA0008A30910550F02150310930F38FE99FE0CD
:102EB0000197F1F700C00000F6CFA29EB001A39EDB
:102EC000700D11249C01260F371F8981EA01E3CF81
:102ED000E22FF0E0E753FA4FB490822F8695869563
:102EE000869590E0FC01E754FA4FE4902770F12CAE
:102EF000022E02C0F594E7940A94E2F731E0E3224F
:102F0000FF24FC01E755FA4FC490D12C022E02C0D9
:102F1000D594C7940A94E2F731E0C322DD24FC0182
:102F2000E756FA4F049110E002C0159507952A95CF
:102F3000E2F701701127E114F10419F081EE0E940B
:102F40009016C114D10419F086EE0E9490168B2DB4
:102F50000E94FE16C114D10419F086EE0E94DF15FE
:102F6000E114F10419F081EE0E94DF15011511053D
:102F700009F482CF8CE278CFCDB7DEB7EAE00C94CB
:102F8000CC32B0E0A0E0E7ECF7E10C94B0327C0189
:102F90005B01C42FD22FFC0185818823A9F04093C7
:102FA000A5040E94EC049093A4048093A304C7702A
:102FB00081E001C0880FCA95EAF70E94D815CDB705
:102FC000DEB7EAE00C94CC321091A504141338C09B
:102FD0008091A3049091A4040E94D1046C01B701D4
:102FE000C5010E945A0DC816D90650F5C0E2CD0F92
:102FF0001D17C1F080E2810F883048F4177081E01E
:10300000012E01C0880F0A94EAF70E94D115C8303A
:1030100048F481E09D2F977001C0880F9A95EAF7D8
:103020000E94D815802F0E94FE16C83040F6D77037
:1030300081E001C0880FDA95EAF70E94D115BFCF71
:10304000C77081E001C0880FCA95EAF7F6CFCF9329
:10305000DF93EC010E944F0C9E01205E3109283065
:10306000310510F0209741F40E94D8158C2F0E9452
:103070009016DF91CF9108950E94C715F7CF662370
:1030800029F020912E05226020932E059C013052BC
:103090002115304308F499270E9427180895B0E0BD
:1030A000A0E0E5E5F8E10C94B2326C018B01E42E6E
:1030B0008091130182FF87C0C091DC03D091DD03B2
:1030C000CC15DD0521F0C114D10409F07CC080913C
:1030D00013018B7F8093130181FD6EC08091DA0311
:1030E0009091DB03A801481B590B81E0209111014D
:1030F000309112014217530708F480E08170F82ED6
:1031000080911301F0FA81F980931301FE0183E0AD
:10311000F695E7958A95E1F7EE71FF27EA56FC4FA1
:1031200020813181AE014F70552781E090E002C0CF
:10313000880F991F4A95E2F7FF2009F43FC0822BC0
:10314000932B918380838091950381FF08C08091A8
:10315000130180618093130182E00E94170A80911D
:10316000950385FF08C0809113018062809313014D
:1031700080E20E94170A6F2DCE010E943F18EE20B8
:1031800031F08091D10385FF02C086FF30C080916D
:10319000D4039091D5030E94ED0C8091DC039091B3
:1031A000DD039C0130522115304308F499270E9419
:1031B00078160E94221117C081E0A0CF80959095CB
:1031C00082239323BECFC601905281159043A0F471
:1031D000C60199270E9478168091DC039091DD0347
:1031E0008C159D0531F31093DB030093DA03CDB703
:1031F000DEB7E8E00C94CE32C601ECCFA7E0B0E039
:10320000E4E0F9E10C94A8327C01DC0114968C9185
:10321000882309F45AC161E0C7010E94390E8C016C
:10322000F7018581882309F18091A6049091A70474
:103230000097D9F008171907C1F0FEE08F9FC00171
:103240001124FC01E15BFD4F208124602083865B1B
:103250009D4FDC010D931C930E94FA1010922E05D5
:1032600061E0C7010E94390E8C01F7018581882336
:1032700009F4B1C0C80197578038910508F0DDC046
:10328000D02EFFE0F01708F410C18FEF93E00E94FA
:10329000153381110AC105E313E0D11036C019823C
:1032A0001A821B821C8299249A9468013FEFC31AE8
:1032B000D30AC8010E94153389831A82882309F42E
:1032C000F4C0813009F081C0580142E0A40EB11C65
:1032D000C6010E941533C82E8A83882309F4E5C0ED
:1032E000C5010E941533D82E8FEF8C0D8330D8F492
:1032F000580153E0A50EB11CDB82DD2021F0CE0188
:1033000001960E9420178501D0CF011524E01207F5
:1033100009F4CBC0C8010E941533811101C0DA94B1
:103320000F5F1F4FBACF8BEF8C0D833030F5C80184
:103330000396DB825C01DD2031F35801A4E0AA0E84
:10334000B11C0E9415338C838823E9F28B819C8108
:103350008130BFEF9B0710F0982F8827E6E0CE164C
:1033600031F0F7E0CF1631F00E945928CCCF0E94FF
:103370003428C9CF0E94BB27C6CF24E0C212C3CFD6
:10338000580134E0A30EB11CC80103960E94153306
:10339000DD2009F48AC0882309F487C08150990B85
:1033A000989E9001999E300D11244D2D4150550B42
:1033B000CA01820F931F019708F4A5CFAFE9BFE0C0
:1033C0001197F1F700C00000F6CFCE0101960E94E0
:1033D0002017560198CF6801E7E5DE1AFFEFCF16F8
:1033E000D10409F050F560E472E08C2D0E94460D86
:1033F000892B19F58EE08C9DF0018D9DF00D112427
:10340000E65BFD4F82818130A1F580914002909171
:103410004102892B91F08091420290914302892BC5
:1034200061F08091440290914502209146023091D2
:103430004702822B932B892B21F1D70115965C90A3
:10344000552009F446C00E35BCE71B0759F10F356E
:10345000ECE71E0741F00D35FCE71F07D1F5809121
:1034600000018823F9F01092000180E00E941216FA
:103470001CC0823011F78091440290914502892B43
:10348000E1F22EE02C9DC0012D9D900D1124FC0138
:10349000E15BFD4F20812E7F2083865B9D4F0E9444
:1034A000FA10CBCF81E0809300018091C101877039
:1034B00061F0D70115968C91882339F08091B4047E
:1034C00082FF03C082E00E941F0B2796E2E10C946A
:1034D000C43280910001882309F457C6480120EEC8
:1034E000821A91084090E4018091BE01482A80919F
:1034F0009503482A38E08316910408F086C09801A5
:103500002770332781E090E001C0880F2A95EAF701
:10351000552009F477C0482AD7018D919C910E94CB
:10352000840A21E030E0390102C0660C771C8A95DC
:10353000E2F7E091A104F091A204FF83EE832090D2
:103540009801309099011D822D81E22FF0E0EE0F5D
:10355000FF1FE55FFC4FC080D180C114D10409F486
:1035600078C6411005C0D60112968C91811189C090
:10357000F601838190E086219721892B09F481C08F
:103580008085982F977009F487E0F8E08F169104F2
:1035900008F055C0552009F44EC0869581708823E7
:1035A00009F46FC0D601AD90BC900A151B0519F443
:1035B000552009F466C0EE81FF81CE16DF0609F4BE
:1035C00060C0D6011D96ED91FC91309721F080816D
:1035D000882309F456C0642DC6010E94D5058823AE
:1035E00009F44FC00A151B0509F09CC60115110509
:1035F00009F49DC651109DC6A214B30409F041C040
:10360000512C97C68095482287CF552009F40AC6C9
:1036100010939901009398010E94E004609398042C
:103620007093990480939A0490939B041092A00441
:1036300010929F0471CF82FB882780F9B0CF55206C
:1036400001F18170ACCF0E94DF1591C60497813AD9
:10365000910558F46A2D88E791E00E94F8045520FE
:1036600009F493C50E946E1020CF0E946E108FE364
:103670009CE90197F1F700C000008A2D0E94901686
:10368000EECF9D819F5F9D835FCFFC0120813181C3
:103690000217130709F072C5511072C510929E04EB
:1036A00080E00E94121671C5902F812FB6C5F901D6
:1036B000858181FFE2C5C9010E94E010DEC59091BD
:1036C0001301892F8E7F90FF8160809313010E94E8
:1036D0002211FFC5809113018E7FF7CF80911301D6
:1036E0008F7E013E110531F0053E1105E9F4809110
:1036F00013018F7D809313018091130180FF29C0F6
:10370000D70115968C910832110570F50E3111050F
:1037100008F07BC004301105C8F58823D1F0109261
:10372000DD031092DC0315C0C8019052811590434F
:1037300018F78091130182FF0CC08091D30381FDA3
:1037400008C02BE032E040E0B60190E080E00E944B
:103750004F18F801E851FC47E730F10508F0C3C500
:10376000E558FC4C0C949B320933110558F40D328A
:10377000110518F40B32110581F69091D10392FDD9
:10378000CCCF08C004361105C1F3C7CF9091D10347
:1037900094FDC3CF882309F4A8C08091E4019091DF
:1037A0009503892B8D7FB1F11092DD031092DC031C
:1037B0008091D10381FD2EC0F80143E0F695E79595
:1037C0004A95E1F7EE71FF27EA56FC4F98012F70FA
:1037D000332781E090E002C0880F991F2A95E2F715
:1037E00080959095208131818223932391838083DA
:1037F00060E0C8010E943F188091E4018D7F0E9423
:10380000E70982E00E941F0B50CE9091D10393FDF7
:1038100084CFC0CF89E0F701ABE0B2E001900D9218
:103820008A95E1F71092100210920E0210920D028A
:103830008091DC039091DD0308171907D1F52091E1
:10384000D10325FF36C03091130131FF02C026FF9E
:1038500030C02091DA033091DB035601A21AB30A7B
:10386000B7010E945A0DA816B90618F58091950364
:1038700081FF08C08091130180618093130182E071
:103880000E94170A8091950385FF08C0809113015B
:1038900080628093130180E20E94170A60911301F5
:1038A000669561708091DC039091DD030E943F1862
:1038B000FCCD8091E40190919503982B2091130108
:1038C00091FB21F9209313018D7F0E94E70910934A
:1038D000DD030093DC03D092DB03C092DA03809116
:1038E00013018460809313018CCF970140E0B601EF
:1038F000C8010E944F18D9CD06E221EE41EE6AE1DF
:103900007CE7C7010E94C117D0CD07E225EE45EE46
:103910006BE17CE7F6CF06E221EE40EE68E17CE762
:10392000F0CF07E225EE44EE69E17CE7EACF06E25C
:1039300021EE42EE6CE17CE7E4CF07E225EE46EEB5
:103940006DE17CE7DECF08E221E045EE6EE17CE749
:10395000D8CF8091B30481608093B30495C08091E7
:10396000B40488608093B4048FC08091B3048260F3
:10397000F3CF8091B3048460EFCF8091B30488606B
:10398000EBCF8091B4048160EDCF8091B40482606C
:10399000E9CF8091B3048061DFCF8091B30480626E
:1039A000DBCF8091B3048064D7CF0E944111809116
:1039B000B3048068D1CF8091B3048C60CDCF809167
:1039C000B4048360CFCF8091B3048E7FC5CF809144
:1039D000B404877FC7CF8091B3048D7FBDCF809122
:1039E000B3048B7FB9CF8091B304877FB5CF80912B
:1039F000B4048E7FB7CF8091B4048D7FB3CF809114
:103A0000B3048F7EA9CF8091B3048F7DA5CF809121
:103A1000B3048F7BA1CF0E9441118091B3048F77B3
:103A20009BCF8091B304837F97CF8091B4048C7F28
:103A300099CF8091B30482FB992790F921E09227D6
:103A400090FB82F990FB83F987CF8091B404982F83
:103A5000909591708E7F892B90FB81F983CF909107
:103A6000B304892F8F7B96FF806476CF0E9441112B
:103A70009091B304892F97FB87F980586DCF61E04F
:103A80008EE090E00E9433336091B3047091B404EF
:103A900084E090E00E9451330E94411106CD60E025
:103AA000EFCF9091B304892F8F7E94FF806154CF24
:103AB0009091B304892F8E7F90FF81604DCF9091BC
:103AC000B404892F877F93FF88604CCF0631FCE7D1
:103AD0001F07B9F580919503982F9A7A3091D003FA
:103AE00030FF04C0482F447409F090E031FF04C057
:103AF000482F417109F090E032FF04C0482F487808
:103B000009F090E033FF03C0827209F090E02223B5
:103B100071F081E0911101C080E080939A0169E227
:103B2000911165E388E791E00E94F8049BCD8091B4
:103B30009A01811104C089E20E944F0A93CD85E366
:103B4000FBCF07373CE7130709F458C008374CE7A9
:103B5000140709F45EC0222381F003305CE71507E7
:103B600009F477C008F05AC001159CE7190709F459
:103B700063C001301C4709F472C0F701878190854A
:103B8000009709F47AC00E94BE08182F092FF70188
:103B9000C580B680B2943FE0B3228091C1018770A6
:103BA000F1F0AC2CCC20E1F0892F807F803451F0F3
:103BB00080E2810F883098F0B11004C0892F807E98
:103BC000803269F08091B40482FF09C082E00E94D3
:103BD0001F0B8091C1018770AA24A3948111A12C8D
:103BE000902E92942FE09222FBE0F91508F4D5C0B4
:103BF000E92DF0E0EE57FC4C0C949B3281E022233F
:103C000051F00E94360B43E062E081E00E94F20A2C
:103C10004CCC82E0F4CF0E94120BF5CF0B35BCE701
:103C20001B0749F10C35ECE71E07D9F00A351C4794
:103C300009F0A3CF81E01CC00E9441112FEF34E3B3
:103C40004CE0215030404040E1F700C000000E94AD
:103C5000C0046FEF7FEF90E080E00E9451330E943C
:103C6000AA158091B40482FB882780F991E0892706
:103C70000E94A40E82CF80E0FBCF8581008111815C
:103C8000882369F0C8010E94C40DD82E682FC8018E
:103C90000E94B80AB8018D2D0E94A70D74CFC801EB
:103CA0000E94840AD82EF6CF202F2F70D22E802F7C
:103CB000807F19F0D29490EFD922CC20A9F0DD209A
:103CC00059F080E2810F883010F0111107C08D2D5E
:103CD0000E941E0A0E946E10812F5DC080912E05E9
:103CE000D82AD0922E05F6CF812F0E94DF15DD2035
:103CF00009F453C080E2810F883010F0111104C024
:103D00008D2D0E94170A03C08D2D0E94100A0E945B
:103D10006E1043C0302F3F70D32E802F807F8032B3
:103D200019F0D29480EFD822112339F1113009F41F
:103D3000B6C0CC2009F4C2C0BB2009F466C020E0A4
:103D4000D7014C9111965C91119712966C91129734
:103D500013967C91139714968C91149715969C91B9
:103D60000E94140E8091D30381FDB6CFF7018681A6
:103D700080FFB2CF8F70868348C08091B40482FDEB
:103D800040C0CC20C1F1DD2029F08D2D0E941E0AFB
:103D90000E946E1080E00E949016A92DA850BB0BC7
:103DA000149710F40E947705812F902F0E945C0BCE
:103DB0008111C4C110929C0110929B01AA20B1F004
:103DC0008091C10180FD12C0D70115961C92869585
:103DD000869586950E94360BC7010E94FE18809139
:103DE000C1018695869586950E94120B60E0C701F9
:103DF0000E94390E6ACB80E00E94DF15DD2069F257
:103E00007FCFCC2091F1B11004C08D2D0E94D81528
:103E1000C4CF41E0B41211C08090E4018D2D8821FF
:103E2000D81609F4BACF0E94EC049093E301809372
:103E3000E201D828D092E401B0CF8091D203823041
:103E400008F4ABCFB812A9CF8D2D0E94D8158D2DB7
:103E50000E94FB098091BE019D2D9823D91609F47B
:103E60009CCFD82AD092BE0198CFB1100AC08D2D18
:103E70000E94D1158D2D0E94FB098D2D0E94450AAF
:103E80008CCF8091D203823008F487CF51E0B512F5
:103E900084CF809195038D2109F47FCFE8CF809165
:103EA000D803CC2021F08B1508F477CFAECFB8160D
:103EB00008F073CF8D2D0E94D1156FCFBB20D1F3A9
:103EC0008091D6039091D703193321F08091D403C8
:103ED0009091D5030E94ED0C812F0E94DF155DCFDC
:103EE000802F86958695837069F0813009F055CFD3
:103EF000812F902F9370C11002C080E090E00E944B
:103F00002D054BCF812F902F9370C11002C080E000
:103F100090E00E94520541CF6C2D812F0E94770BBB
:103F20003CCF802F837091F5C11037CF412F429540
:103F300046954770440F440F812F8F70042E01C0A7
:103F4000880F0A94EAF7212F207114FF07C02FE091
:103F500030E001C0220F4A95EAF72095302F3695C0
:103F600036953370323069F050F44091F8013130B9
:103F700029F0822B84230E94590B0FCF842B822B94
:103F8000FACF282B8091F8018227F5CF8695CC2097
:103F900011F0802F8170882309F4FFCE412F4295C4
:103FA00046954770440F440F812F8F70042E01C037
:103FB000880F0A94EAF7212F207114FF07C02FE021
:103FC00030E001C0220F4A95EAF72095302F369550
:103FD00036953370323069F050F44091F901313048
:103FE00029F0822B84230E94EF0AD7CE842B822BC8
:103FF000FACF282B8091F9018227F5CFF02FFF709F
:10400000DF2ECC2029F08F2F0E94360B812FFECE81
:10401000812F0E94D1158D2D0E94120BBECE123F12
:1040200089F160F4103FB9F0113F81F0CC2009F420
:1040300080C0B11051CE802F8F7128C0133F49F13D
:10404000143FA1F78091B40482FD2FC0802F8F719F
:10405000CC2011F31BC08091D803CC2079F0B81686
:1040600008F09BCE202F2F7181E090E001C0880FD7
:104070002A95EAF79091F9018927B5CF8B1508F4B5
:104080008CCEF0CF802F8F71C110C6CF0E94360B1F
:1040900084CE80E0CC2009F4A6CF81E0902F9F71E0
:1040A00001C0880F9A95EAF79ECF8091D2038230A3
:1040B00040F1CC20D1F09091C1019770943041F43F
:1040C0000E94240A802F8F710E94120BA12C65CEB2
:1040D000B816E0F7202F2F71D22E822F0E94360BB8
:1040E00063E08D2D0E94420BF1CFB81630F00E9494
:1040F000240A64E0802F8F71F5CF81E00E941F0BAE
:10410000E5CFCC2059F0302F3F71D32E832F0E9462
:10411000360B63E08D2D0E94420B3FCE81E00E9462
:104120001F0B41E04B1508F038CE82E00E941F0BB8
:1041300034CEB110C5CE802F8F716ECFCC2019F048
:10414000B11038CE3BCEB11035CE20E0F701408122
:10415000518162817381848195810E94140E8091C6
:10416000D30383FF27CE80919B0190919C010297FE
:1041700009F020CE812F0E94FE161CCE552029F07A
:10418000DC0118968C9185FF8BCAC80197558F3F2B
:10419000910511F008F071C05801BB24BEE00B9FDF
:1041A000F00111249F01265B3D4F6901D70115964F
:1041B0008C91E15BFD4F908180FB90F99083882387
:1041C00009F475CA0E94EC0490930A0280930902D4
:1041D000F60182818F5F828380912E0590919503F5
:1041E000892B83838091E40184830680F781E02D0D
:1041F000309731F0D6011C966D917C91C6010995DE
:104200008EE08A9DF0018B9DF00D1124E65BFD4F41
:10421000858181FF49CA90E080E09093A604809355
:10422000A7042BC080919801909199010817190754
:1042300081F41092990110929801109298041092B2
:10424000990410929A0410929B041092A004109268
:104250009F048091A1049091A204009709F495CF46
:10426000A8E08A16910408F010CA642D0E94D505B2
:10427000811103C081E00E9412168091D10380FF5A
:1042800068CA0E94EC046C01D70115968C918823B2
:1042900009F424CA8091130182FF08C02BE032E0A8
:1042A00040E0B60190E080E00E944F180431BCE786
:1042B0001B0709F40FCA0531ECE71E0709F4FFC913
:1042C0000331FCE71F0729F480911301816080937B
:1042D0001301C80190528115904308F00DCA109245
:1042E000DD031092DC03F7012581222309F4EECBD4
:1042F0001092A504C8019057839708F0E7CB84E09B
:1043000090E00E941D339093B4048093B304F801AD
:10431000E150F047E232F10508F01BCBE257FC4CCC
:104320000C949B32A114B10409F066C9512CB12C34
:10433000A12C80E00E941216D092A204C092A10487
:1043400081E080939E04F601858180939C04511046
:104350000EC0AB2861F0F601808191819C01245050
:104360003109213A310508F06EC90E944F0AD60181
:104370001696AD90BC90C5019A9581159F4110F499
:10438000E0EEBE2277247394C50101978F339E47D8
:1043900008F0712CD6011996ED91FC911A9730977F
:1043A00031F01B966D917C9181E009957822772000
:1043B00079F0F601868197810E944F0C80939D04CD
:1043C000C501F8E08F16910408F040C90E948405E9
:1043D0000E946E1044C9B0E0A0E0E1EFF1E20C945D
:1043E000B3328091BB01807F09F054C08091BA0143
:1043F000882309F44FC0E0912D0589E0D82E8091E3
:10440000E4048E1709F446C00E2F10E0ED9DF00174
:104410001124EB51FB4F8481882309F440C0D09EC6
:10442000E001D19ED00D1124FE01EB51FB4F918193
:104430008091B601981333C090818091B501981393
:104440002EC0858181112BC0E280F3808091B7015D
:104450009091B801E81AF90A60E085EB91E00E94BA
:10446000390E65EB71E00E945A0DE816F906B8F4B2
:104470008091BB018F7080618093BB01C551DB4F80
:1044800088818F708061888385EB91E00E94FE189F
:104490000E947A0ACDB7DEB7E7E00C94CF32F8017C
:1044A0003196E770ACCFA8E1B0E0E9E5F2E20C9418
:1044B000AB328C0186E0F801DE01539601900D923B
:1044C0008A95E1F7D80114967C9014971596EC9094
:1044D00085EBA82E81E0B82E8091B90181112AC008
:1044E000711003C0FF24F3941CC0EE20F9F0C80142
:1044F0000E94000EF82E8823C9F089E0F801A5EB90
:10450000B1E001900D928A95E1F78091B901813077
:1045100031F48091B5019091B6010E94F30D0E9493
:10452000EB218F2D6896EFE00C94C732C8010E94F2
:10453000FE18D8CFF80150806180C280D38060E03F
:1045400085EB91E00E94390EF090BA018091B7019D
:104550009091B8014601881A990A60E085EB91E0D4
:10456000FF2009F428C10E94390E65EB71E00E941A
:104570005A0D8816990608F0D1C0772009F4B2CFF9
:104580008091BB01382F307F2091B601D801119660
:104590009C911197311171C029131FC02091B50151
:1045A0009C9129131AC04091BC015091BD011796EE
:1045B0002D913C914217530781F4E11054C08F7044
:1045C00080618093BB0185EB91E00E94FE18809191
:1045D000BB01F8018683F12CA4CFE11044C0662D05
:1045E000852D0E944403E82E882381F08091D30317
:1045F00080FFF1CF85EB91E00E94FE1889E0E5EBAA
:10460000F1E0DF011D928A95E9F7E5CF5B8A6C8ABC
:104610008B899C890E94F30D292F22952F702430BD
:1046200058F49F70223088F0992399F0F801968110
:10463000907F79F4FE2C75CF2A5F2F70223068F0BE
:10464000C8010E94FE18EF2CF5CF992311F08823A2
:1046500089F3805E883070F3F3CF803F58F3815F39
:10466000833070F7E7CF8091BB0181608093BB01FD
:104670008091D30381FDAFCFBDCF291320C02091FE
:10468000B5019C9129131BC04091BC015091BD0103
:1046900017962D913C9118974217530781F4E1101A
:1046A0000EC016968C93C8010E94FE1889E0F8018E
:1046B000A5EBB1E001900D928A95E1F732CFC801E8
:1046C0000E94000E882309F431CFEE2009F42ECF8A
:1046D0008091BB018032B8F02091B5013091B601D4
:1046E0003B872A87DD86CC869091B9019E871F86FD
:1046F000888B8091BC019091BD019A8B898BCE01F2
:104700000A960E94FE1889E0F801A5EBB1E001903D
:104710000D928A95E1F70E94EB21E4CE8091BB01D6
:10472000982F907F09F466CF772009F4DBCE209193
:10473000B601F801918129131AC02091B501908129
:10474000291315C04091BC015091BD0127813085CE
:104750004217530761F4E1100AC08683C8010E9422
:10476000FE1889E0D5011D928A95E9F7DACEC801D5
:104770000E94000E882309F4D9CEEE2009F4D6CE8B
:104780008091BB01803208F4BECF2091B5013091F9
:10479000B6013A832983DC82CB829091B9019D8353
:1047A0001E828F838091BC019091BD01998788877B
:1047B000CE010196A6CF0E94390E65EB71E00E94F2
:1047C0005A0D8816990608F04AC0772009F48ACE57
:1047D000FE2CEE2009F4AACE9091B601F801818159
:1047E00098132FC09091B501808198132AC0209111
:1047F000BC013091BD01878190852817390709F5E3
:104800008091B7019091B801C81AD90AF8ECCF1677
:10481000D10408F04BCF9091BB0190FD47CF907F22
:1048200009F444CF8091BB01D80116968C9316975A
:10483000903F09F438CF982F907F905F8F70892B2D
:1048400030CFC8010E94000E81115DCF8091BB0165
:1048500081608093BB01C8010E94FE1862CE89E08E
:10486000F50111928A95E9F75CCEA2E1B0E0EBE3A5
:10487000F4E20C94B6320A871B872C873D874E875B
:104880005F87688B798B8A8BCE010A960E945322B0
:1048900081110CC089E0FE013A96DE01119601906B
:1048A0000D928A95E1F78E8581110BC019E08091F8
:1048B0002D059091E404891331C06296E4E00C94D4
:1048C000D2322091E40430E0C90101968770992723
:1048D00040912D054817190699F099E0929FD00153
:1048E000939FB00D1124AB51BB4FFE013196019047
:1048F0000D929A95E1F78093E4040E947A0AD6CF4C
:104900000E9441111092E40410922D0589E0E5EB1C
:10491000F1E0DF011D928A95E9F7C8CF819FC001C0
:1049200011248B519B4F0E945322882331F2809196
:104930002D0590E001968770992780932D05B7CFBC
:10494000EF92FF920F931F93CF93DF9380911904FF
:10495000882361F0E091E0038DE0F82E8091190446
:10496000E81748F0109219041092E003CDB7DEB7B3
:10497000E6E00C94D032EE24E394EE0EE092E003F5
:10498000CE2FD0E0EF9DF0011124E65EFB4F848135
:104990008823E9F087819085892B21F48185928590
:1049A000019659F40081118122813381448155811E
:1049B0006681778180850E943524FC9EF001FD9EF2
:1049C000F00D1124E65EFB4F148210922E05EE2DA1
:1049D000C5CF10928D0410928C0410921401809116
:1049E0008B0480938A040E9423060E94A0240895C9
:1049F000B0E0A0E0EEEFF4E20C94A932C0918A049A
:104A000097E0992E01E010E02DE0322E34E0432EA5
:104A10005524539480918B048C1309C00E94A024C8
:104A20000E942306CDB7DEB7E1E10C94C532D0E099
:104A3000FE01EE0FFF1FEE57FB4F80819181989E84
:104A4000D001999EB00D1124AF51BC4F14962C91FA
:104A50001497211159C060901904EAE1F4E030E0A4
:104A600020E0812C5D01261508F04CC0E384F4841D
:104A7000D501CD90DC906FEF7FEF712C472D50E08A
:104A8000DA01AA0FBB1FAC0DBD1D0D90BC91A02D6E
:104A9000109731F0EA16FB0609F4BA017394EECFD1
:104AA0006F3F7607A9F1D80102C0AA0FBB1F6A9514
:104AB000E2F78A2AB801072C02C0660F771F0A9412
:104AC000E2F7AB01415051098416150601F5329EFB
:104AD000F001339EF00D1124E65EFB4F989ED0014D
:104AE000999EB00D1124AF51BC4F12962D913C915F
:104AF000139730872783448210821182928781879F
:104B000015965C920E94F5052196C37083CF14829E
:104B10002F5F3F4F3D96A7CFAEE1B0E0E2E9F5E26F
:104B20000C94A8324B8B5C8B6D8B7E8B8F8B988F0C
:104B3000882349F080919B0190919C01019690936C
:104B40009C0180939B01888D811110922E05188AFB
:104B5000198A1A8A86E0FE017396DE011A96019080
:104B60000D928A95E1F78091B40482FF1EC0809176
:104B7000B8039091B903892BC1F00E94EC042091F5
:104B8000BF013091C001821B930B2091B80330917B
:104B9000B9038217930720F08091C10182FFE7C11A
:104BA0000E942B0A81110E94DC098E85882389F0DE
:104BB00061E0CE010A960E94390E6C018F8520E5D6
:104BC000C2162CE7D20689F4882329F181E080936C
:104BD00014010A851B852C853D854E855F85688976
:104BE00079898A890E943524CDC031E5C3163CE716
:104BF000D30629F4882379F00E94E924EACF42E51C
:104C0000C4164CE7D40639F4882329F080911401A6
:104C10008111F2CFDBCF91EEE92E93E0F92E412CFA
:104C2000B12CA12C88248394912CBE016F5F7F4FFF
:104C30007A8F698F22242394F70140815181662461
:104C40006A94762C20E0822F90E0FC01EE0FFF1F8B
:104C5000E40FF51F608171816115710531F0C61691
:104C6000D70609F43C012F5FEECF312CFFEF6F1612
:104C70007F0609F448C0F701448130901401832D68
:104C8000411180E0F82FF1703F2EF70155808681A9
:104C90009F85992309F4F7C0332009F4F4C00091EB
:104CA000CC031091CD03511013C0A401062C01C0F8
:104CB000440F0A94EAF7842B86838091DE03909157
:104CC000DF038017910720F41093DF030093DE03C6
:104CD000C40102C0880F991F2A95E2F70197F701D6
:104CE00026812817190679F480918C0490918D04FF
:104CF000009709F44BC00E94D1040817190708F067
:104D000045C0F70124824328FFEFAF1ABF0A27E00E
:104D1000E20EF11C38E0A316B10409F08DCF8F85A7
:104D2000882309F410C1442009F40DC10E94EC0449
:104D300090938D0480938C0480911904883010F531
:104D400091E0980F9093190499E0FE013A96DE01E4
:104D5000119601900D929A95E1F74DE0849FC00164
:104D60001124865E9B4F29E0FE013196DC01019003
:104D70000D922A95E1F72FEF3FEFFC013287218753
:104D8000D486C3866E96E2E10C94C43280918A0484
:104D900050918B04982FF0E0E0E0851314C09093BD
:104DA0008A04EE16FF0609F4AECF90E0FC01EE0F88
:104DB000FF1FEE57FB4FB182A082019683709927A7
:104DC00080938B04A0CF682E712CF301EE0FFF1F90
:104DD000EE57FB4F20813181F7E0F29FD001F39F26
:104DE000B00D1124AF51BC4F2D913C9111973E8FC6
:104DF0002D8F40E020E030E0E32FF0E0EE0FFF1FCA
:104E00006D8D7E8DE60FF71F008111810115110553
:104E1000E1F0F7010190F081E02DFC8FEB8F20E0B5
:104E200005C00617170709F4432D2F5FE22FF0E0A6
:104E3000EE0FFF1F6B8D7C8DE60FF71F6081718178
:104E40006115710571F73F5FD7CF4423C9F0F701B2
:104E5000231708F0FD012482EE16FF0621F490933B
:104E60008A04342E50CF981305C0AE17BF0711F433
:104E70009F5F937093012F5F3F4F822F83708DCF81
:104E8000F0E0E0E0F7CF90E0511020C0B40102C0A4
:104E9000660F771F2A95E2F79B012150310982178F
:104EA000930731F4442309F44CC0C5010E94F50571
:104EB000C401062C01C0880F0A94EAF7982F909538
:104EC000F701868189238683352C1DCFAC01062C02
:104ED00002C0559547950A94E2F7BA0161707727A9
:104EE0009C012150310982239323892B31F5672BB3
:104EF00021F1F70182819381892BE1F0E98DFA8D0F
:104F000027E011922A95E9F70E94EC04282F8B8361
:104F10009C8334E03D83F70182819381782F8887D9
:104F2000998709811A813C8144E05E816F81892FD4
:104F30000E943524F7011582BBCFF42FF1705F2E4C
:104F4000B7CF532CB5CF90918A0480918B049817DA
:104F500029F00E94F824411015CF3BCE0E94A024D6
:104F600010928D0410928C040E942306F4CF82E0EC
:104F70000E941F0B15CEA6E0B0E0E1ECF7E20C9426
:104F8000B8329093370280933602811520E292075F
:104F900030F40E9478162696E2E00C94D43280EF2A
:104FA00089838A830E94EC048160682F9C838B83B1
:104FB00049815A817C8181E090E00E948C25EBCF71
:104FC0000F931F93CF93DF938C01EB0160E472E0AA
:104FD0008C2F0E94460D892BA1F48091D4039091CF
:104FE000D5030E94ED0CDD27C85CDD4F8881F801F8
:104FF000128218828330F1F048F4813059F0823007
:1050000081F0DF91CF911F910F9108958430B9F015
:105010008530B9F78091400290914102009789F361
:1050200006C08091420290914302009799F30E943A
:10503000BB27E7CF8091440290914502F6CF809143
:10504000460290914702009791F7209140023091DB
:105050004102809142029091430221153105F1F203
:10506000009729F7C901E3CFA6E0B0E0EAE3F8E250
:105070000C94B8329093370280933602811520E267
:10508000920730F40E9427182696E2E00C94D4325E
:1050900080EF89838A830E94EC048160682F9C835F
:1050A0008B8349815A817C8181E091E00E948C252B
:1050B000EBCFCF93DF93EC010E9434288091D4038F
:1050C0009091D5030E94ED0CCE010E94BB27DF9189
:1050D000CF9108950F931F93CF93DF938C01862F69
:1050E00060E472E00E94460D892BB1F4C091400249
:1050F000D0914102209781F0F8018281833051F4F0
:10510000CE010E945928CE010E945928CE010E944A
:10511000592802C08430D0F7DF91CF911F910F91B1
:1051200008950F931F93CF93DF938C01EB0160E4FD
:1051300072E08C2F0E94460D892B09F05CC0FE01A5
:10514000FF27D80112968C911297E85CFD4F8130B1
:10515000B9F415969C9192FF02C080830AC090FF1B
:10516000FCCF82E0808380914202909143020097BD
:10517000B9F480914002909141020097E1F110C092
:105180008230B9F515968C9182FD28C080FD0BC048
:1051900083E080838091440290914502009701F161
:1051A0000E94342828C084E0808380914602909138
:1051B00047020097A9F78091400290914102009721
:1051C000F9F00E9459288091420290914302009781
:1051D00039F78091400290914102E2CF85E08083CF
:1051E0008091400290914102009729F00E94592835
:1051F000F0CF86E08083DF91CF911F910F910895CA
:105200008091420290914302B8CFA6E0B0E0EBE07B
:10521000F9E20C94B6320E94EC048C018091E50115
:105220009091E6018017910781F019821A820E94FD
:10523000EC04682F49815A81792F80E090E00E9428
:105240008C251093E6010093E5012696E4E00C948A
:10525000D2321F920F920FB60F9211242F933F93C9
:105260004F935F936F937F938F939F93AF93BF936E
:10527000CF93DF93EF93FF93D091E900DF7080919C
:10528000EC00C82FC17080FDC0E81092E900809149
:10529000F000877F8093F00078940E947011109244
:1052A000E9008091F00088608093F000CD2BCF70F2
:1052B000C093E900FF91EF91DF91CF91BF91AF9142
:1052C0009F918F917F916F915F914F913F912F911E
:1052D0000F900FBE0F901F9018951F920F920FB650
:1052E0000F9211242F933F934F935F936F937F936C
:1052F0008F939F93AF93BF93EF93FF938091E100C0
:1053000082FF09C08091E20082FF05C08091E10028
:105310008B7F8093E1008091DA0080FF24C0809130
:10532000D80080FF20C08091DA008E7F8093DA0061
:105330008091D90080FF9DC080E189BD82E189BD57
:1053400009B400FEFDCF81E08093DA048091B504BA
:10535000811109C00E9463030E9404048091E2004D
:1053600084608093E2008091E10080FF17C080910B
:10537000E20080FF13C08091E2008E7F8093E20004
:105380008091E20080618093E2008091D800806289
:105390008093D80019BC85E08093DA048091E10005
:1053A00084FF2BC08091E20084FF27C080E189BD8B
:1053B00082E189BD89B5982F917080FFFBCF8091E4
:1053C000D8008F7D8093D8008091E1008F7E8093FC
:1053D000E1008091E2008F7E8093E2008091E20004
:1053E00081608093E2008091DB04882309F447C048
:1053F00084E08093DA048091DA048091E10083FFF5
:1054000027C08091E20083FF23C08091E100877F65
:105410008093E10082E08093DA041092DB048091B3
:10542000E1008E7F8093E1008091E2008E7F809387
:10543000E2008091E20080618093E20042E060E05F
:1054400080E00E94D2038091F00088608093F00099
:10545000FF91EF91BF91AF919F918F917F916F914C
:105460005F914F913F912F910F900FBE0F901F9022
:10547000189519BC1092DA041092B50474CF80917B
:10548000E30087FD93E09093DA04B5CF78941F9200
:105490001FB61F9211248F939F93AF93BF93809158
:1054A000AF049091B004A091B104B091B204019600
:1054B000A11DB11D8093AF049093B004A093B104DB
:1054C000B093B204BF91AF919F918F911F901FBE77
:1054D0001F9018951F921FB61F9211248F939F93B0
:1054E000AF93BF938091AE04811113C08091AF043C
:1054F0009091B004A091B104B091B2044196A11D65
:10550000B11D8093AF049093B004A093B104B09305
:10551000B204BF91AF919F918F911F901FBE1F90BA
:105520001895CDB7DEB7EB970FB6F894DEBF0FBE78
:10553000CDBF85B7806885BF85B7806885BF84B7D4
:10554000877F84BF0FB6F894A8958091600088612A
:1055500080936000109260000FBE80E890E00FB66C
:10556000F89480936100909361000FBE80EC97E007
:1055700090937701809376010E94DC060E94780F59
:105580000E94EC0E0E94650E0E9463030E940404B8
:105590008091E20084608093E20078948091DA0444
:1055A0008823A1F01091E9001F709091EC00892FE1
:1055B000817090FD80E8182B1092E9008091E8003E
:1055C00083FD0E9470111F701093E90082E084BD7A
:1055D00093E095BD9AEF97BD80936E000E948B0E6D
:1055E000811102C00E941F1507E511E0D8018D91BD
:1055F0008D018F3F11F00E94C207B1E00E351B07ED
:10560000A9F70EE511E0F80181918F018F3F11F0AC
:105610000E94C207F1E007361F07A9F78EE0E9E113
:10562000F2E0DF01282F1D922A95E9F7EAEEF1E07A
:10563000DF011D928A95E9F790E080E00E941D331A
:10564000863E9E4F21F40E948B0E811167C066EE4C
:105650007EEF90E080E00E94513360E082E090E0D5
:105660000E94333360E083E090E00E943333109275
:10567000F80160E074E184E090E00E94513360E062
:1056800086E090E00E9433336FEF87E090E00E9465
:10569000333340E050E0BA0188E090E00E944533A7
:1056A00060E084E290E00E94333360E087E190E0C4
:1056B0000E94333360E08CE090E00E94333360E07E
:1056C0008DE090E00E94333319821A821B821C8283
:1056D0001D821E821F82188648E050E068E170E05B
:1056E000CE0101960E94233340E050E0BA0180E2EF
:1056F00090E00E94453380E00E942D0D0E941F150E
:1057000040E050E0BA018FE090E00E94453340E075
:1057100050E0BA0183E190E00E94453382E090E0DE
:105720000E9415338093FA0184E090E00E941D33BB
:105730009093B4048093B3040E94BC0FEFE3FCE9A0
:105740003197F1F700C000000E94BC0F8091190250
:1057500080FF08C06FEF7FEF90E080E00E94513340
:105760000E94C00483E090E00E9415330E94590B10
:1057700081E091E09093AB048093AA041E01FBE2C8
:105780002F0E311C8091DA0400E112E1853009F41A
:1057900095C00E94BC0FBBEF8B2EB1E09B2E19E190
:1057A000E12E12E0F12ED701F401219131918D917A
:1057B0009D9142E0E930F40709F48AC028173907BF
:1057C000A1F3A9E1AA2EA2E0BA2E512CD5010D9188
:1057D0001D915D01F401619071904F016016710699
:1057E00061F160267126412CCC24C394D12CC301D5
:1057F0008C219D21892BB9F04CAA5DAA0E94EC0452
:105800009FAB8EABF1E0F8AF91E098012C213D21E8
:10581000232B09F490E099AF4CA95DA96EA97FA94B
:1058200088AD0E948C254394CC0CDD1C29E04212EB
:10583000DECFF401329711830083539437E0531283
:10584000C5CF0E94E0044AC08091DA04843021F17F
:105850001092AE0428E130E040E40FB6F894A89529
:10586000209360000FBE4093600083B7817F846007
:1058700083BF83B7816083BF7894889583B78E7F19
:1058800083BF0FB6F894A8958091600088618093DB
:105890006000109260000FBE8091D904882371F0DF
:1058A0000E94BC0FE9E1F2E081919191892B09F00E
:1058B000CEC587E292E08E179F07B1F78091DA0498
:1058C000853009F4C1CF0E9441110E94770561CF54
:1058D0002817390709F075CF0E94052980919F0488
:1058E0009091A004892B09F43EC0409194045091FA
:1058F000950460919604709197042FB7F894809165
:10590000AF049091B004A091B104B091B2042FBF44
:10591000841B950BA60BB70B4091900450919104FA
:10592000609192047091930484179507A607B707B6
:10593000D0F080919F049091A0040E9427181092AB
:10594000A00410929F041092940410929504109257
:105950009604109297041092900410929104109261
:105960009204109293040091A6041091A7040115CB
:10597000110519F18091090290910A020E94D10447
:105980006C0189E0D1011D928A95E9F7B101C80146
:105990000E945A0D8C159D0580F48091A604BEE0EE
:1059A0008B9FC0011124FC01E15BFD4F208122FD92
:1059B00004C0865B9D4F0E94FA10809114018823D9
:1059C00001F180918C0490918D040097D1F00E9498
:1059D000D1042091DE033091DF032817390788F4C2
:1059E00090918A0480918B04981709F492C00E94C8
:1059F000F8241092DF031092DE0310928D041092AF
:105A00008C048091D10380FF1EC08091130182FF1E
:105A10001AC00E94EC042091DA033091DB03AC0140
:105A2000421B530B20911101309112014217530771
:105A300050F02BE032E041E0BC018091DC0390911A
:105A4000DD030E944F1886E0E0E3F2E08E010F5F75
:105A50001F4FD80101900D928A95E1F71092320202
:105A60001092330210923402109235028B819C8185
:105A7000892B09F461C080912E0290912F020E941F
:105A8000D104AC0190912902992309F44BC0809173
:105A90000F018417150608F04FC09F3F19F09F5F54
:105AA00090932902DB80DD2059F00E9461079FEF6F
:105AB0001D140CF491E0899F802D112480933202F3
:105AC000DC80DD2059F00E9461079FEF1D140CF46B
:105AD00091E0899F802D112480933302309132020E
